:020000041000EA
:4000000000400208230100100D00000085010010000000000000000000000000000000000000000000000000000000008101001000000000000000008101001081010010E9
:400040008101001081010010810100108101001081010010810100108101001081010010810100108101001081010010810100108101001081010010810100108101001060
:400080008101001081010010810100108101001081010010810100108101001081010010810100108101001081010010810100108101001081010010810100108101001020
:4000C00010B5064C2378002B07D1054B002B02D0044800E000BF0123237010BD3C0600080000000078300010084B10B5002B03D00749084800E000BF07480368002B00D182
:4001000010BD064B002BFBD09847F9E7000000004006000878300010E8000008000000007047FFF7FDFF72B60F4C104DAC4209DA21686268A368043B02DBC858D050FAE701
:400140000C34F3E70A490B4A0020521A02DD043A8850FCDC084809490860BFF34F8F00F005F900F01DF8FEE77C300010943000103C060008140800080000000808ED00E017
:40018000FEE7FEE700B504207146084202D0EFF3098001E0EFF30880043001F0D1FBFEE710B562B6014800F067F9FEE70000081010B5002001F040F910BDC04670B5624918
:4001C000E0239B00CB580F2213401A00D0329200525807210A40032A05D0042A06D0002A12D15A4814E05A4A106811E01A00C0329200554952581F210A40112A06D0132A7C
:4002000004D0FA20C00103E0524801E080200002002B36D14C4BB222D2009A5801211140B125ED005A59120F032422405B591B0F1C4207D0444C63591B0F03242340012BDC
:4002400002D102E0012300E00023002B01D0002901D1032A4BD13C4BB022D2009D58AD03AD0B3D495958C904C90C9C58240E01231C40013401F06CFE6843210001F068FEA8
:4002800035E0012B33D1304BC822D2009A5801251540C024E4001A59120F03210A401B591B0F194207D028490B591B0F03210B40012B02D102E0012300E00023002B01D049
:4002C000002D01D1032A12D11F4DC022D200AB587F210B40A958090A1F263140AC58240C3440584301F034FE210001F031FEE0239B00154AD3581B0903221340D840144C34
:400300006060164B1D692D0AFC32154001351969090E013101F01CFEA060290001F018FE0500E06020610E4BC0180E4901F010FE20750D4BE818FA21890001F009FEA06149
:40034000C003E06170BDC0460000264000127A00C000000800366E0184050000000021403F420F0040420F00E703000010B5284801F0E8FD274CB022D200A3585B005B0817
:40038000A350E0218900635830208343635080235B04A350204A214BE250A02292010433E250FF221E4BE25001F0BAFDC0225200A35801218B43A35000F018FBFFF7FEFE16
:4003C000B0235B055B78002B04D0B0235B055B78DBB200E02123212B03D1124B0022DA605A60114C22008021042000F0CBFD2000103000F05FFE0D4B1A685123D35C002B5D
:4004000002D00B4800F0CCFE00F094FC10BDC046C02F00100000264001000200840500008C050000E00023405806000810080008C82000108023024AD358032018407047FB
:400440000000214010B501F00CFB084980228C58074B2340074C23438B508823034AD358DB06FAD501F001FB10BDC04600002140FCFF00000100FA0570B50500830504D0C9
:40048000E821FF310F4801F02DFA01F0EAFA0400FFF7D0FF032801D1FFF7D4FF0A4AB0239B00D55080215058084B03400848034353508823044AD358DB06FAD5200001F04C
:4004C000D4FA70BDFC20001000002140FCFF00000300FA05FEE7C046F0B50025002711E0BB00C658F3B2FF22964308E06A008A181478A419527822700135013BDBB2002B6F
:40050000F4D10137012FEBD9F0BDC0460323084A1360084A136080221206074B1A60A022D202064B1A60064A064B1A607047C046102031401420314000001D4100031D41A3
:4005400001001180000E1F4110B50A00002101F094FD10BD10B501F087FD10BD30B587B03C49A022D2008B58032083438B503A4A116808688823CB58C318186837490840FB
:4005800018601368186884241B59C01803681B021B0A80256D042B430360106805680359EB1818680140196013683E229A5C002A06D02848E02189004258753CA243425035
:4005C0003E229A5C002A06D02248E021890042583024A24342503E229B5C002B07D01D49E02292008B588020000603438B500021012000F053FF0021022000F04FFF002129
:40060000032000F04BFF0021042000F047FF0021002000F043FF01A8114903000A0032CA32C312CA12C300F067FF002802D00420FFF750FF07490B4A8B5880200006034390
:400640008B50094801F014F800280FD00420FFF741FFC0460000264010080008FF00FFFF14210010087F0000400D0300CA4CCB4BE158CB4A0A40E250E158CA4A0A40E2508C
:40068000E25880252D062A43E250043BE158C64A0A40E250E158C54A0A40802189010A43E250E258802109020A43E250C04A1168C04B0B40802149000B431360002001F04F
:4006C00011FCBD4BE2581543E550E158012291430A43E2506421002001F04AF9B74B1B683F229A5C052A06D970229A5C01210A40B349986842509A6874215B5AD21851683B
:40070000B04B0B408C2189010B435360AB4B1B6873229A5C0321914070229A5C7220185C140084402143012002400A43802109060A438021C900986842509A6852583F22C2
:400740009A5C062A03D900219F4A986881509A6874215B5AD21811689A4B0B40F82149010B431360954B1B687322995C703A8A40110070229A5C7220185C82400A438021E9
:4007800009060A438021C900986842509A6852583F229A5C132A06D970229A5C03210A408A49986842509A6874215B5AD218D168844B0B40C42189010B43D3607F4B1B68A1
:4007C00073229A5C03200400944070229A5C7221595C15008D402900214302400A43802109060A438021C900986842509A6852583F229A5C142A07D970229A5C05210A4093
:40080000C5210901986842509A6874215B5AD21851696C4B0B40C42189010B435361674B1B6873229A5C0321914070229A5C7220185C140084402143052002400A438021FF
:4008400009060A438021C900986842509A6852583F229A5C152A06D970229A5C05210A405B49986842503F229A5C162A06D970229A5C04210A405749986842509A6874219B
:400880005B5AD21811694F4B0B40C42189010B4313614A4B1B6873229A5C0321914070229A5C7220185C140084402143042002400A43802109060A438021C90098684250FB
:4008C0009A6852583F229A5C172A06D970229A5C05210A404049986842503F229A5C182A07D970229A5C04210A40C6210901986842503F229A5C192A06D970229A5C0421A9
:400900000A403649986842503F229A5C1A2A06D970229A5C03210A403149986842503F229A5C1B2A06D970229A5C03210A402D49986842503F229A5C392A06D970229A5C46
:4009400002210A402849986842509A6874215B5AD21891681B4B0B40C42189010B439360164B1A687323D35C032199407023D35C7220105C1C0084402143022003400B431B
:40098000802109060B438021C9009068435093685B5807B030BDC0460000264004050000FEFCFFFFFFFF00FFFFF0FFFFFF8FFFFF00002740FFFCFFFF0C050000100800087E
:4009C000140C0000FF00FFFF180C00004C0C0000540C0000580C00005C0C0000640C0000680C00006C0C0000E40C000070B58AB09621002000F0BCFF00F092FF002814D177
:400A000000F07EFFC0235B005D4AD358DB0705D411005C4A8B585B005B088B505849594A8B588020000603438B50012001F0F2F9554A516C554B0B40E82189010B43536481
:400A4000536C1B0AFF2213403A2B07D14E4A516C4F4B0B40E82189010B435364FFF77EFD4C4A4D4B1A6000240CE06200121953004A4AD318198B9A8AD88A00041043FFF710
:400A800063FD01340B2CF0D900240AE0620012199300424AD3185A6E196ED86DFFF75AFD0134112CF2D93E4D2900343128003C30FFF712FD0F223B4B1A603B4A3B4B1A6076
:400AC00001223B4B1A601E323A4B1A603A4A1368812149000B43136001AC22002B00443343CB43C243CB43C243CB43C22100334800F028F922002B00683323CB23C223CBD9
:400B000023C223CB23C221002D4800F01BF92D4D22002B000C3343CB43C243CB43C243CB43C22100284800F00DF922002B00303343CB43C243CB43C243CB43C22100234828
:400B400000F000F922002B00543323CB23C223CB23C223CB23C221001D4800F0F3F824220021200001F089FACC23DB05E3602100184800F0E7F8FFF7C9FC0AB070BDC046D9
:400B8000000026400C05000000002740FF00FFFFFFC5FFDF0300FA05F0012140142100101422001000006740070101000002674004793440087934400079344080023240B9
:400BC000000332409422001080033240800432400005324000063240214B984230D00ED8402831D004D800281FD010282AD031E080282BD080235B00984229D02AE0194B33
:400C0000984229D007D8A0231B0698420DD0164B984212D01EE0154B98420AD0144B984209D0144B984215D101E0002016E0124814E0124812E0124810E0A020C0030DE0BC
:400C400007480BE00F4809E00F4807E00F4805E0034803E00E4801E0A420C0037047C04606005200010000F0090000A0040000F0050000F0030000F0010052000200520062
:400C800003005200010050000200500005005200FF00520070B5124B1A683123D35C002B04D1C421FF310F4800F01CFE0C4B1D682C00B423EB582A6A944663441B68002BB2
:400CC0000BDB094B1868FFF787FF6B6801229A6063689B68002BFBD100E0044870BDC046100800083C2C0010E80700080200500010B50D4B1861002805D002230370FD336E
:400D0000437000234380094B1B6850229A5C002A08D051229B5C002B04D04F3A0449002000F0F8FA10BDC046E8070008100800086101000810B502481430FFF7D9FF10BD56
:400D4000E807000870B505000C0000285DD000295DD0FF230A689A4303D099212D4800F0C1FDFF2322699A4303D09A21294800F0B9FDA3685B0D03D09B21264800F0B2FD3C
:400D800063685B0A03D09C21224800F0ABFDE3695B0F03D09D211F4800F0A4FD236A5B0F03D09E211B4800F09DFD1B4A11688B69EB1ADB0949691B01CB18216829607D21A0
:400DC0001068415C6918E06808607E211068415C6918206908607F211068415C6918606908607C211068415C6918A06808606168A961116880228A5CAD18A2692A60E26904
:400E00001A60226A5A60002002E0044800E0034870BDC0467C2C00101008000801005A0070B504000D000A4B1A68B423D3581B181B68002B0ADA0B0C03D00649064800F0C8
:400E400051FD2D042D0C6560002000E0034870BD10080008D5020000FC2C001001008A0070B505000C000368002B01DA002300E0084B002B0BD1EA60230C03D006490748D5
:400E800000F030FD2404240CAC60002000E0014870BDC04601008A00BB020000FC2C001070B505000C1E03D19921084800F01AFD074B1A68B423D3585B191B68002B03DAA7
:400EC000EB682360002000E0024870BD3C2D00101008000801008A0070B504000D00234B1A683123D35C834236D9002936D00B68DB0635D13123D35C984204D3C421FF3132
:400F00001B4800F0EFFC194B1B681A6AB0215B5A5C431419174E34602B68DA080021686801F0ABF800212000FFF77AFF3468002D03D111490E4800F0D5FC2A00002120009A
:400F4000FFF78EFF00280DD10A4B18680021FFF767FF002808D108E0084806E0074804E0064802E0064800E0054870BD10080008FC2C0010000800089303000003018A00E0
:400F800001018A0010B50400002A17D1002915D1124B1A683123D35C984204D3C421FF310F4800F09FFC0D4B1B681A6AB0215B5A5C4314190B4B1C6000200EE0002A09D01D
:400FC000002909D0074B59609A60191D2000FFF783FF02E0044800E0034810BD10080008FC2C00100008000803018A00F0B583B00D001C4B1B68DC68236883422DD9470947
:401000007B01C01A012383401E00002903D100F028FD019001E000230193124B18680368002B01DA002300E00F4B002B0ED16368BF00DF193B68334203D0B3433B60002443
:4010400000E00A4C0021FFF7EBFE00E0084C002D04D1019800F009FD00E0064C200003B0F0BDC0460008000801008A00020188000301880004018A000A4B1B68DA681368E7
:4010800083420BD943095901401A0121814052689B009B580B4203D0034802E0034800E003487047000800080101880004018A0000018800034B1B68002B01D1014B18609E
:4010C0007047C0460C080008F0B5474680B404000F0090461E002D4B1B68002B03D1B5212B4800F0FFFB294B1B682C2060431C18FF22150035402560330A13406360360C9E
:40110000A660244B1A683123D35C9D4204D3C421FF31214800F0E6FB1E4B1A68B023D35A6B43116A8C466344236166683223D35C9E4204D3E021FF31174800F0D3FB154B68
:401140001B681D6A80367601AD196561A668330C04D0FF214900104800F0C4FB330C03D00E490D4800F0BEFB3604330C1E43AE604346E36127620023A361069B002B02D0B1
:4011800000229B5EA38104BC9046F0BD0C0800087C2D001010080008FC2C0010FF010000F0B58FB0041E03D15221294800F09AFB6368032B03D95421254800F093FBE36ABB
:4011C000002B03D15821224800F08CFB236B002B03D159211E4800F085FB07AA1300210061C961C321C921C302AD290023001433C1CBC1C141CB41C10821535E0CAE338013
:40120000144B1B6836215B5E07998C466344B370089B0D930B9B0A980096A26AE16AFFF753FF2B69E868002200920021FFF74CFF216B300000F0E8FA0023F25E002A05DBBB
:401240001F231A401E3B9340034A13600FB0F0BD7C2D00101008000800E100E0F8B505000F0016001C00002A03D1FD21224800F039FB224B1B68002B03D1FE211E4800F0DF
:4012800031FB1E4B1B682C2128004843181879435918012213004D68AB401B044568AA4015000269002A20D08F69002F1FD11268002A01DA002200E0114A002A19D13268F2
:4012C0001204120C134333600369DE6001238B614C6204692B0C03D00A490B4800F002FB2A04120CA260002004E0084802E0084800E00748F8BDC0467C2D00100C080008CC
:4013000001008A00BB020000FC2C001004028A0007028A0070B504000D0016000F4B1B68002B04D1AF2149000D4800F0DBFA0B4B1B682C2060431C18236A002B04D1B12153
:401340004900074800F0CEFAE369B34204D9236AB6009D51002000E0024870BD0C0800087C2D00100A028A0070B582B0040000230193002804D1D221FF312D4800F0B2FAA9
:401380002369002B04D1E9214900294800F0AAFA6369002B04D1D421FF31254800F0A2FA236A002B04D1EA214900214800F09AFA6269D5682B0C24D01B04136013682069C8
:4013C0001C4B1A68B423D358C3181B68002B18DA01A9FFF765FD00280ED1019803681E0CFF221340E269934207D29B00226AD358002B02D0984700E0002631002069FFF7FF
:401400000FFD2D042D0C0FD063691D601B68636A002B03D098470023636203E0A36A002B00D098470023A36163691B6802B070BD7C2D00101008000810B50400084B1B6862
:40144000002B04D1B221FF31064800F04BFA044B1B682C2060431818FFF786FF10BDC0460C0800087C2D001010B50400094B1B689B6CC340DB0703D4BE21074800F032FA25
:40148000044B1B681B691034A402E3580F20184010BDC04610080008BC2D0010134B1A683C23D35C83421DD9042904D94B1EFF3B9BB2132B18D8FF290CD91F2319400C4AEF
:4014C0000300C0339B009950D03080000423835000200AE007231940D0308000044BC150002002E0034800E002487047100800080000264001004A0070B5041E03D14A49DE
:401500004A4800F0EFF9B023DB00494AD358002B00DA87E0474B22689A4203D94649434800F0E0F923689B039B0BE279002A02D08022520400E000221343B022D2003C4913
:401540008B50A2883D4B9A4204D98C218900374800F0C8F922893A4B9A4203D93949334800F0C0F9A388DB04D90C23891B04364A13400B43354A2E498B50A37A0F2B04D951
:401580008E218900294800F0ADF9E37A0F2B03D92F49264800F0A6F9A289284B9A4203D92C49224800F09EF9A37A0F211940E27A1201FF2313400B43A289120226490A4078
:4015C0001343A27B1207C02189050A401343B122D20017498B50A379042B03D91F49134800F080F9228A164B9A4204D9912189000E4800F077F90E4819494558194B1D4050
:40160000A3791B02E022D20013402B4343504558154B1D40238A1B040B4A13402B434350002000E0114870BD1F020000FC2D001000002640FFFF030029020000FF1F0000EA
:40164000FF010000310200000000FF0184050000390200003A02000000FF1F00430200008C050000FFF8FFFFFFFF00FE03004A0070B505003149324A8B5880200006034316
:401680008B502C0003E0012000F020F9013CB223DB002A4AD3585B0701D4002CF3D12749B122D2008858274B03408020800503438B50002D01D0002C0CD02049B022D20060
:4016C0008B588020000603438B5003E0012000F0FDF8013CB223DB00184AD358DB0701D4002CF3D1002D01D0002C08D01349B122D2008B58C020800503438B5013E00F4B7D
:40170000B121C90058580F4A02408020800502435A5008395A58520052085A5008495A58520052085A50002D03D0002C03D0002002E0002000E0044870BDC0460000264027
:401740008C050000FFFFFFCF02004A0070B505000C001A4B1B6828229A5C012A15D1820807211000884327D19200AD1AED00FF20A8401B6820339A181168AC4023004B40E4
:40178000184004004C40146016E03A229B5EDBB2994203D176210A4800F0A4F8074B1B681B68072215408022120615438022920194466444A400E55070BDC0461008000806
:4017C000842E001070B504000D000B4B9A680B4B9A420CD1002904D13821FF31084800F081F81034054BA400E058E55003E01034A400044BE05870BD00ED00E00000000851
:40180000842E001000000010F0B5474680B482B0061E01914AD04368032B03D93221264800F060F80023F05E002804DBB178FFF78DFF002400E0214C0023F15E73680029A6
:4018400012DB88081E4FC0308000C55903221140C900FC3290468A4095439A01434613408B402B43C35116E089B20F220A40083A920806329200134810184768032211404D
:40188000C900FF252A008A4097439A012B0013408B403B4343600B4B9A680B4B9A4206D10023F05E0199FFF78DFF00E0034C200002B004BC9046F0BD842E0010010056001D
:4018C00000E100E000ED00E00000000810B5034B1B78584300F0BCF810BDC046D400000801BEFEE770B50D00044C18220100200000F0CBFBA5610020FFF7F2FF000600086C
:40190000054B802212069A649B6C002B01DB002000E002487047C0460000274003004600054B8022120198585B68FF221A4202D08023DB021843704700002640FEE7C046F0
:4019400010B50A4B0268DA6142681A6282685A62C2689A620269DA6242691A6382695A63C2699A63FFF7EAFF10BDC04600060008F0B5474680B4002801D0192300E0642355
:401980008B429B415B42304D2C682268A826A45BA41822680327BA433B401A4322602C682268A45BA2181668284CA046264016602C682668AA229446A25A96193268BA431D
:4019C000134333602A6813686546525BD3181A68444614401C60002805D010291BD921291BD8012024E0184B1B6855229A5C914215D956229A5C914213D957229A5C9142C3
:401A000011D958229A5C91420FD959229B5C99420DD804200CE000200AE0022008E0002006E0012004E0022002E0032000E00520054A1268526813680F218B43034313604F
:401A400004BC9046F0BDC04610080008FFFCFFFF0230800803D001300238FCD1C046C0467047EFF3108072B6704780F31088704710B5B0235B059B899BB2002B04D0B0232E
:401A80005B059B899BB201E080235B0080225200934215D1184C23681968683A9B58C9180B680F208343963A13430B6021680C689C23CB58E318196881430A431A6019E009
:401AC0000D4C2368196898229B58C918B02040050A4BC2580A4B13400A681343C022920013430B60226811689C23D358CB18054A82581A6010BDC046100800084818000004
:401B0000FFFCFFFF4418000030B5B0235B059B899BB2002B04D0B0235B059B899BB201E080235B0080225200934215D1184C23681968683A9B58C9180B680F208343953A79
:401B400013430B6021680C689C23CB58E318196881430A431A6019E00D4D2B68196898229B58C918B0246405C12040012258094B13400A681343C022920013430B602A68BA
:401B800011689C23D358CB1822581A6030BDC04610080008FFFCFFFFB0235B059B899BB2002B04D0B0235B059B899BB201E080235B008022520093420DD1104B1B681A68B2
:401BC00098215B58D21811680D4B0B40C021C9010B43136011E0094B1B68196898229B58C918084BB0225205D258074B13400A681343C022920013430B6070471008000811
:401C0000FF8FFFFF18180000FFFCFFFF30B5B0235B059B899BB2002B04D0B0235B059B899BB201E080235B008022520093420DD1134B1B681A6898215B58D2181168114BAF
:401C40000B408021C9010B43136018E00C4D2B68196898229B58C918B02464050A4822580A4B13400A681343C022920013430B602A6811689C23D358CB1822581A6030BD93
:401C800010080008FF8FFFFF4C180000FFFCFFFF10B5B0235B059B899BB2002B04D0B0235B059B899BB201E080235B0080225200934217D10020FFF7D7FBB0235B055B7891
:401CC000002B04D0B0235B055B78DBB200E02123222B03D8002803D1013004E0012002E0002000E0012010BDF8B50700012803D93D493E48FFF7F6FDB0235B055B78002B25
:401D000004D0B0235B055B78DBB200E021239DB2B0235B059B899BB2002B04D0B0235B059E89B6B201E0802676000020FFF79CFB002814D180235B009E4212D1222D12D8B3
:401D40002B4B1B685C682B4821582B4B19403B068022520413400B432350002404E0274C02E0264C00E0254C80235B009E4201D1222D03D880235B009E4232D01C4B1A68DB
:401D80003123D35C002B04D1C421FF311C48FFF7A9FD174B1B681D6A80235B009E4203D1002F05D0174A06E0002F03D0164A02E0164A00E0164A01212800FFF751F800288D
:401DC0000FD10B4B1A68B423D3585B191B68002BF7DBEB681B0E1B06A0221206934200D100242000F8BDC0464C0A0000C82E00101008000818F00000FFFFFFFE0400420054
:401E00003C2C0010010100300300000C010000300100000CF8B50500012804D9822109012948FFF75FFDFFF733FF002849D0FFF718FE0700002D11D10021244B244AD150D9
:401E4000E823DB00B0225205D65CF6B20120FFF74BFF041E19D1FFF70BFE16E0B02252051C4BD0581A4B194958501B49565CF6B21A481A581F218A4314390A431A5003202A
:401E8000FFF724FDFFF7C2FE0024002C15D11049124A8B581F20834306401E438E50002D02D1FFF779FE08E00720FFF70FFDFFF72BFE0020FFF718FF04003800FFF7D5FD2F
:401EC00000E0074C2000F8BDC82E0010307F00000000264010180000410700001CFF000003004200042805D10B4A116804230B4313600FE0094B1A681168A023D358CB1828
:401F00000006C022920410401860034A136804218B4313607047C04610E000E0100800080749C02252008B589B009B088020C00503438B508B588020000603438B507047F4
:401F400000002640014B18607047C04610080008002243088B4274D303098B425FD3030A8B4244D3030B8B4228D3030C8B420DD3FF22090212BA030C8B4202D31212090273
:401F800065D0030B8B4219D300E0090AC30B8B4201D3CB03C01A5241830B8B4201D38B03C01A5241430B8B4201D34B03C01A5241030B8B4201D30B03C01A5241C30A8B42F0
:401FC00001D3CB02C01A5241830A8B4201D38B02C01A5241430A8B4201D34B02C01A5241030A8B4201D30B02C01A5241CDD2C3098B4201D3CB01C01A524183098B4201D369
:402000008B01C01A524143098B4201D34B01C01A524103098B4201D30B01C01A5241C3088B4201D3CB00C01A524183088B4201D38B00C01A524143088B4201D34B00C01A02
:402040005241411A00D20146524110467047FFE701B5002000F006F802BDC0460029F7D076E770477047C046002310B59A4203D0CC5CC4540133F9E710BD0300821893425F
:4020800002D019700133FAE77047030030B5002A0DD00C7801335D1E013A2C700131002CF5D19A189A4202D01C700133FAE730BDF8B5C046F8BC08BC9E467047F8B5C04675
:4020C000F8BC08BC9E4670470300000001000000010000000000000005036000040000000100000000000000010000000604600008000000C8070008B1010010737973747C
:40210000656D5F70736F63365F636D30706C75732E630000F4010000140004010A000905080000006301000000203440740080203440740000223440740080223440740019
:40214000002434407400802434407400002634407400802634407400002834407400802834407400002A34407400802A34407400002134400C2300109000000000233440EC
:402180009C23001090000000002534402C2400109000000000273440BC24001090000000002934404C25001090000000002B3440DC25001090000000006034406C260010B8
:4021C0007C00000080603440E82600107C00000000613440642700107C00000080613440E02700107C000000006234405C2800107C00000080623440D82800107C000000D9
:4022000000633440542900107C00000080633440D02900107C000000006434404C2A00107C00000080643440C82A00107C00000000653440442B00107C0000008065344005
:40224000C02B00107C000000EC206C46AC20000001703440027234406300000000000000000000006866660600000000000000000000000012120000000803003C00000088
:4022800000000000000000000060CCBA0000000000000000000000000000040813131D1D020000000000000000000000600000000000000000000000000000000008000062
:4022C000000000006000000000000000000000008888680600000000000000000000000000000000000803007000000000000000000000006666660600000000000000004D
:40230000000000000000000003090300000000000000000000000000FFFFFFFFFFFFFFFFFFFFFFFFFFFFFFFFFFFFFFFFFF000000FFFFFFFFFFFFFFFFFFFFFFFFFFFFFFFFB3
:40234000FFFFFFFFFF0000000000000000000000000000000000000000000000000F0000FFFFFFFFFFFFFFFFFFFFFFFF11111111111111111111111111111111111111110B
:4023800011111111111111111111111111111111111111111111111111111111000000000000000000000000FFFFFFFFFFFFFFFFFFFFFFFFFFFFFFFFFFFFFFFFFF00000056
:4023C000FFFFFFFFFFFFFFFFFFFFFFFFFFFFFFFFFFFFFFFFFF000000000000000000000000000000000000000000000000000000FFFFFFFFFFFFFFFFFFFFFFFF11111111BA
:402400001111111111111111111111111111111111111111111111111111111111111111111111111111111111111111000000000000000000000000FFFFFFFFFFFFFFFFB8
:40244000FFFFFFFFFFFFFFFFFFFFFFFFFF000000FFFFFFFFFFFFFFFFFFFFFFFFFFFFFFFFFFFFFFFFFF00000000000000000000000000000000000000000F0000000000006F
:40248000FFFFFFFFFFFFFFFFFFFFFFFF11111111111111111111111111111111111111111111111111111111111111111111111111111111111111111111111100000000F8
:4024C0000000000000000000FFFFFFFFFFFFFFFFFFFFFFFFFFFFFFFFFFFFFFFFFF000000FFFFFFFFFFFFFFFFFFFFFFFFFFFFFFFFFFFFFFFFFF00000000000000001F0000E7
:4025000000000000000000000000000000000000FFFFFFFFFFFFFFFFFFFFFFFF11111111111111111111111111111111111111111111111111111111111111111111111143
:402540001111111111111111111111112A5000000000000000000000FFFFFFFFFFFFFFFFFFFFFFFFFFFFFFFFFFFFFFFFFF000000FFFFFFFFFFFFFFFFFFFFFFFFFFFFFFFF3A
:40258000FFFFFFFFFF00000000000000000000000000000000000000F0F0F00000000F0FFFFFFFFFFFFFFFFFFFFFFFFF1111111111111111111111111111111111111111EA
:4025C00011111111111111111111111111111111111111111111111111111111000000000000000000000000FFFFFFFFFFFFFFFFFFFFFFFFFFFFFFFFFFFFFFFFFF00000014
:40260000FFFFFFFFFFFFFFFFFFFFFFFFFFFFFFFFFFFFFFFFFF000000000000000000000000000000000000000000000000000000FFFFFFFFFFFFFFFFFFFFFFFF1111111177
:40264000111111111111111111111111111111111111111111111111111111111111111111111111111111111111111100000000000000001F1F1F1F1F1F1F1F1F1F1F1FFA
:402680001F1F1F1F1F1F1F1F1F1F1F1F1F1F1F1F1F1F1F1F000000000000000000000000000000000000000000070000FFFFFFFFFFFFFFFFFFFFFFFF11111111111111112B
:4026C0001111111111111111111111111111111111111111111111111111111111111111111111111114111100000000000000001F1F1F1F1F1F1F1F1F1F1F1F1F1F1F1F3F
:402700001F1F1F1F1F1F1F1F1F1F1F1F1F1F1F1F000000000000000000000000000000000000000000000000FFFFFFFFFFFFFFFFFFFFFFFF111111111111111111111111E9
:4027400011111111111111111111111111111111111111111111111111111111111111111111111100000000000000001F1F1F1F1F1F1F1F1F1F1F1F1F1F1F1F1F1F1F1F89
:402780001F1F1F1F1F1F1F1F1F1F1F1F000000000000000000000000000000000000000000000000FFFFFFFFFFFFFFFFFFFFFFFF1111211111111111111111111111111191
:4027C000111111113111111111111111111111111111111111111111111111111111111100000000000000001F1F1F1F1F1F1F1F1F1F1F1F1F1F1F1F1F1F1F1F1F1F031FCD
:4028000008141610061F1F1F00000000000B000000000000000000000000000000000000FFFFFFFFFFFFFFFFFFFFFFFF111111111F11111F11111111111111111111111184
:40284000011111111111111F11111111111111111111111F11111F111111111100000000000000001F1F1F1F1F1F1F1F1F1F1F1F1F1F1F1F1F1F1F1F1F1F1F1F1F1F1F1FFE
:402880001F1F1F1F00000000000000000000000000000000F0F0F00000000F0FFFFFFFFFFFFFFFFFFFFFFFFF111111111D11111D11111111111111111111111111111131EA
:4028C0001111111D11111111111111111111111D11111D111111111100000000000000001F1F1F1F1F1F1F1F1F1F1F1F1F1F1F1F1F1F1F1F1F1F1F1F1F1F1F1F1F1F1F1F3C
:40290000000000000000000000000000000000000000000000000000FFFFFFFFFFFFFFFFFFFFFFFF11111111111111111111111111111111111111111111111111111111C7
:40294000111111111111111111111111111111111111111100000000000000001F1F1F1F1F1F1F1F1F1F1F1F1F1F1F1F1F1F1F1F1F1F1F1F1F1F1F1F1F1F1F1F0000000023
:4029800000000000000000000000000000000000000F0000FFFFFFFFFFFFFFFFFFFFFFFF11111111111111111111111111111111111111111111111111D111111111111134
:4029C0001111111111111111111111111111111100000000000000001F1F1F1F1F1F1F1F1F1F1F1F1F1F1F1F1F1F1F1F1F1F1F1F1F1F1F1F1F1F1F1F0000000000000000E7
:402A000000000000000000000000000000000000FFFFFFFFFFFFFFFFFFFFFFFF11111111111111111111111111111111111111111111111111F1111111111111111111115E
:402A400011111111111111111111111100000000000000001F1F1F1F1F1F1F1F1F1F1F1F1F1F1F1F1F1F1F1F1F1F1F1F1F1F1F1F1F1F1F1F000000000000000000000000AA
:402A800000000000000F000000000000FFFFFFFFFFFFFFFFFFFFFFFF111111111111111111111111111111111111111111111111D1F11111111111111111111111111111CB
:402AC000111111111111111100000000000000001F1F1F1F1F1F1F1F1F1F1F1F1F1F1F1F1F1F1F1F0D1F161F1F1F1F1F1F1F1F1F00000000001F000000000000000000006A
:402B00000000000000000000FFFFFFFFFFFFFFFFFFFFFFFF111111111111111111111111111111111111111111111111F1F1111111111111111111111111111111111111F5
:402B4000111E111100000000000000001F1F1F1F1F1F1F1F1F1F1F1F1F1F1F1F1F1F1F1F1F1F141F1F1F1F1F1F1F1F1F00000000000000000000000000000000706000005F
:402B800000000704FFFFFFFFFFFFFFFFFFFFFFFF111111111111111111111111111111111111111111111111F1111111111111111111111111111111111111111111111106
:402BC00000000000000000001F1F1F1F1F1F1F1F1F1F1F1F1F1F1F1F1F1F1F1F1F1F1F1F1F1F1F1F1F1F1F1F000000000000000000000000000000000000000000000000F5
:402C0000FFFFFFFFFFFFFFFFFFFFFFFF11111111111111111111111111111111111111111111111111111111111111111111111111111111111111111111111147656E65F1
:402C400072617465645F536F757263655C50536F43365C70646C5C647269766572732F7065726970686572616C2F6970632F63795F6970635F6472762E68000047656E656A
:402C800072617465645F536F757263655C50536F43365C70646C5C647269766572735C7065726970686572616C5C6770696F5C63795F6770696F2E630000000047656E656D
:402CC00072617465645F536F757263655C50536F43365C70646C5C647269766572735C7065726970686572616C5C6770696F5C63795F6770696F2E680000000047656E6528
:402D000072617465645F536F757263655C50536F43365C70646C5C647269766572735C7065726970686572616C5C6970635C63795F6970635F6472762E68000047656E6522
:402D400072617465645F536F757263655C50536F43365C70646C5C647269766572735C7065726970686572616C5C6970635C63795F6970635F6472762E63000047656E65E7
:402D800072617465645F536F757263655C50536F43365C70646C5C647269766572735C7065726970686572616C5C6970635C63795F6970635F706970652E630047656E6545
:402DC00072617465645F536F757263655C50536F43365C70646C5C647269766572735C7065726970686572616C5C70726F745C63795F70726F742E630000000047656E6500
:402E000072617465645F536F757263655C50536F43365C70646C5C647269766572735C7065726970686572616C5C737973636C6B5C63795F737973636C6B2E630000000096
:402E400047656E6572617465645F536F757263655C50536F43365C70646C5C647269766572735C7065726970686572616C5C737973636C6B5C63795F737973636C6B2E68D2
:402E80000000000047656E6572617465645F536F757263655C50536F43365C70646C5C647269766572735C7065726970686572616C5C737973696E745C63795F73797369E8
:402EC0006E742E630000000047656E6572617465645F536F757263655C50536F43365C70646C5C647269766572735C7065726970686572616C5C737973706D5C63795F73F8
:402F00007973706D2E6300000000204000002440000000400000000000002340000030400000314000009F40000022400000104002020202020202020210101D8000170078
:402F40007500FF030602063604102000000000007FC0000000040000000000000019324B647D00804000080B100000000000FF012002001F00800004FF08101800100014AD
:402F80000018001C4044484C50000000081000000800000004000000041000000012000004210000002100000016000040114002C41300138013A013200000001C000000D0
:402FC0000000214000002540000001400000344000002440000031400000324000001F410000234000001140010101010101010101101010800019005500F0000501053B9E
:4030000004101C01010000000FC000000004000001010101011D3A57789600082000101208000000001F00000010000F002000023F06080E00080009000A000B24282C30EF
:4030400034000000100000009000000088000000080000008000000004F0000000F00000400200002005A000D00100018001A001200000001000000000000000000000104D
:4030800000000008C00000009C300010C0000008400500003C060008D80100000048E80100127A0000093D0000093D0000093D0004000000A00F00000000D007E90000102A
:4030C000C10000100000000010B50004400B27D0144B1A68146AB023D15ACA00531AE3181B68002BF4DA3E220F4B1A600F4A104B1A60104B0621A322D20099500E4A985045
:403100009B58084B1A68106AB023D15ACA00531AC31800225A60084B064AD358002BFADA10BDC04610080008040126401E1F000008012640000026401C05000010B5437883
:40314000FF2B20D100F042FA04000F4B1A683123D35C042B04D8C421FF310C4800F0FEF9094B1A68116AB023D35A9B00CB18DB685A68116801230B4313601368DB07FCD4EB
:40318000200000F00BFA10BD100800083C2C0010F0B585B001900291544B1A683123D35C002B04D1C421FF31514800F0D7F94F4B1B681E6AB4229A58971950229B5C002BD4
:4031C00077D000F0DBF9050003283CD1474B1A683123D35C062B04D8C421FF31444800F0BDF9424B1968B023CB5A5A00D21853000A6A94466344B4228A58D3181B68002BB9
:4032000023DB002000F0D2F93A4B98421FD03A4B1A6900230021012000F0B8F9002803D0364C17E0013400E00024002000F0BEF9304B984202D0324B9C42F3D9304B9C423E
:4032400007D92E4C06E0002404E02C4C02E02B4C00E00024002C46D100F0B8F90390294B294AD358002B13DA234A0121300000F0A5F900280ED10298FFF726FF019B002BC0
:403280000AD03B68002BFCDB00F070F9040004E01A4C02E0194C00E01C4C032D05D10121002000F053F90028F9D1039800F076F919E000F08BF905000F4A0121300000F0DC
:4032C0007DF9002809D1019B002B08D03B68002BFCDB00F04BF9040002E0084C00E00B4C280000F05BF9200005B0F0BD100800083C2C001001018800E8070008050052000F
:40330000EF4902001C0500000000264001005000F0B54F464646C0B4824B1A685468B0235B055B78002B04D0B0235B055B78DBB200E02123212B67D1B023D15ACB005B1AB8
:40334000116A8C46634419680029F5DADD6802212943D960B023D15ACB005B1A116A8C466344D968C9073ED5D9680904090C8C4684271168D559A84641440968090A0904F2
:40338000FF26360431400D0088261168894691598846C14449460968090A0906294365462943D9601168D359C9180A685E4B98461A4090252D012A430A605A4B99461A6806
:4033C00013689C46925962441368414619400B002B4313604B461A681568D15969180B689359EB181B684F4B1A68B021555AEB005B1B156AAC46634400255D60156A515A57
:40340000CA00531AEB185B68484A116904230B431361012801D030BF00E020BF414B1A68B023D15ACB005B1A116A8C46634419680029F3DAB02149054978002904D0B0218D
:4034400049054978C9B200E02121212932D1D968C90722D510688421525880180468324A1440DB681B0C1B02FF2109020B40234303602C4B19688823C8580B689C4660442E
:4034800003681A400D6AB023CC5AE1000B1BEB18DB681B0E1B021A430260224B1A68106AB023D15ACA00531AC318DA6802218A43DA6028E086235B00E358002B23D11C48D6
:4034C00007681C4BA321C9005E581B4A904615681A4A0260062058503E21424611600631174A9950164B134AD358002BFADA154A86235B00E2500E4B1F60A323DB000D4A41
:40350000D6500D4B1D60074B1A68106AB023D15ACA00531AC31800225A600CBC90469946F0BDC04610080008FF00FFFF00ED00E00801264000002640040126401E1F0000BF
:403540001C050000AAAAAAAA0000000001B40248844601BC604700BFED0F001001B40248844601BC604700BFE518001001B40248844601BC604700BF950C001001B40248F5
:40358000844601BC604700BF3504001001B40248844601BC604700BF5D12001001B40248844601BC604700BF6B1A001001B40248844601BC604700BF7910001001B4024865
:4035C000844601BC604700BF610E001001B40248844601BC604700BF631A0010000000000000000000000000000000000000000000000000000000000000000000000000E6
:0200000490303A
:02000000F2709C
:0200000490501A
:0C0000000005E2F021002101E300137074
:00000001FF