:020000041008E2
:4000000000780408EB0208100D00000051030810510308105103081051030810000000000000000000000000000000004D0308104D030810000000004D0308104D030810DA
:400040004D0308104D0308104D0308104D0308104D0308104D0308104D0308104D0308104D0308104D0308104D0308104D0308104D0308104D0308104D0308104D03081000
:400080004D0308104D0308104D0308104D0308104D0308104D0308104D0308104D0308104D0308104D0308104D0308104D0308104D0308104D0308104D0308104D030810C0
:4000C0004D0308104D0308104D0308104D0308104D0308104D0308104D0308104D0308104D0308104D0308104D0308104D0308104D0308104D0308104D0308104D03081080
:400100004D0308104D0308104D0308104D0308104D0308104D0308104D0308104D0308104D0308104D0308104D0308104D0308104D0308104D0308104D0308104D0308103F
:400140004D0308104D0308104D0308104D0308104D0308104D0308104D0308104D0308104D0308104D0308104D0308104D0308104D0308104D0308104D0308104D030810FF
:400180004D0308104D0308104D0308104D0308104D0308104D0308104D0308104D0308104D0308104D0308104D0308104D0308104D0308104D0308104D0308104D030810BF
:4001C0004D0308104D0308104D0308104D0308104D0308104D0308104D0308104D0308104D0308104D0308104D0308104D0308104D0308104D0308104D0308104D0308107F
:400200004D0308104D0308104D0308104D0308104D0308104D0308104D0308104D0308104D0308104D0308104D0308104D0308104D0308104D0308104D0308104D0308103E
:400240004D0308104D0308104D0308104D0308104D0308104D0308104D0308104D0308104D0308104D0308104D0308104D0308104D0308104D0308104D0308104D030810FE
:400280004D0308104D0308104D03081010B5054C237833B9044B13B10448AFF300800123237010BD884902080000000028820810084B10B51BB108490848AFF300800848D0
:4002C000036803B910BD074B002BFBD0BDE81040184700BF000000008C4902082882081050430208000000007047FFF7FDFF72B6104C114DAC4209DA21686268A368043B78
:40030000A2BFC858D050FAE70C34F3E70B490C4A00209142BCBF41F8040BFAE709480A490860BFF34F8F01F045F801F01FF800F045FEFEE72C820810448208108849020877
:40034000F84D02080040020808ED00E0FEE7FEE700B504207146084202D0EFF3098001E0EFF30880043003F01BF8FEE708B50B4BB3F90030002B09DB5A0903F01F0301212C
:4003800001FA03F36032064941F822300122054B1A60054804F084FD08BD00BFB87A081000E100E0A8490208A877081008B50B4BB3F90030002B09DB5A0903F01F030121D8
:4003C00001FA03F36032064941F822300222054B1A60054804F064FD08BD00BFB07A081000E100E0A8490208B077081008B50B4BB3F90030002B09DB5A0903F01F030121B7
:4004000001FA03F36032064941F822300322054B1A60054804F044FD08BD00BFA87A081000E100E0A8490208B877081008B50B4BB3F90030002B09DB5A0903F01F03012195
:4004400001FA03F36032064941F822300422054B1A60054804F024FD08BD00BFA07A081000E100E0A8490208C077081008B50B4BB3F90030002B09DB5A0903F01F03012174
:4004800001FA03F36032064941F822300522054B1A60054804F004FD08BD00BF987A081000E100E0A8490208C877081008B50549054802F00FFB10F4803FF8D1012002F0F8
:4004C00053FF08BDA84D02080000674008B5094B187159711A1DDA6002221A6100221A75054A03F10801054802F0AEFBFFF7DEFF08BD00BFA8490208A84D020800006740EE
:4005000030B583B004460D4610EE100A03F09EFCCDE90001034A2946204604F073FD03B030BD00BFD0770810F8B5104C234603F8040FE3600123236123750D4F04F1080604
:400540000C4D3A463146284602F07EFBFFF7AEFF04F11803E360002323753A463146284602F0BAFAFFF7A2FF207EF8BDA8490208A84D02080000674008B5402818D002DC20
:400580001E280DD008BD482802D0602814D008BD48220B4B1A72E0210320FFF797FF08BD1E22074B1A7203212220FFF78FFF08BD4022044B9A6008BD8022024B9A6008BD34
:4005C000A84902080006324008B5402818D002DC1E280DD008BD482802D0602814D008BD48220B4B1A7280210320FFF76FFF08BD1E22074B1A7203212220FFF767FF08BD64
:400600004022044B5A6008BD8022024B5A6008BDA84902080006324010B504461B4904F066FDB0B11A49204604F061FD98B11949204604F05CFD80B11749204604F057FDC6
:4006400068B11649204604F052FD50B14FF0FF3008E0002006E0012004E0022002E0032000E0042000230DE0984205D10C4A02EB83020121D16104E0094A02EB8302002126
:40068000D1610133042BEFDD10BD00BFD8770810E4770810EC770810F477081000780810A849020808B5002800DC0120022800DD0220002900DC0121102900DD1021013838
:4006C000013901EB8010C0B200F0CAFF08BD00BF00B585B000EE100A10216846FFF710FF254B1B68013B042B42D8DFE803F003111F263400214800F0E3FF01210220FFF78B
:40070000D1FF684600F0DCFF1D4800F0D9FF2FE01C4800F0D5FF01210220FFF7C3FF684600F0CEFF164800F0CBFF21E0684600F0C7FF154800F0C4FF1AE0144800F0C0FF13
:4007400001210220FFF7AEFF684600F0B9FF104800F0B6FF0CE00F4800F0B2FF01210220FFF7A0FF684600F0ABFF0B4800F0A8FF05B05DF804FB00BFA84902080C780810F1
:400780001C7808102078081030780810F477081034780810007808103878081010B50C46C0B2FFF7C1FE83B2A34205D10146054804F004FB012010BD0146034804F0FEFA5D
:4007C000002010BD407808106C78081008B54820FFF7FAFE4020FFF7CFFE6020FFF7CCFE4822094B1A7280210320FFF76FFE00210846FFF76BFE00210120FFF767FE0348A3
:40080000FFF70AFF08BD00BFA8490208D877081038B50020FFF788FE2B4C20700120FFF783FE2A4D28702178294C40EA01202080284804F0C3FA2978274804F0BFFA23881A
:40084000B3F5004F0CD907EE903AF8EE677A9FED237A77EEC77A9FED227A67EE877A07E007EE903AF8EE677A9FED1D7A67EE877A17EE900A03F0EAFA04460D4602460B4637
:40088000184804F09BFA0EA3D3E900232046294603F030FB0022144B03F07AF904460D4602460B46114804F089FA00F0D3FE2046294603F0B9FDFFF70BFF38BDAFF3008089
:4008C000CDCCCCCCCCCCFC3F184C0208264C02080C4C02088C78081098780810000080470000003CA478081000004040C478081008B54820FFF740FE4020FFF73DFE6020EF
:40090000FFF73AFE0348FFF787FE5A22024B1A7208BD00BFE4770810A849020800000000F8B5354C2346072203F8042FE360012323612375314F04F10806314D3A46314613
:40094000284602F081F9FFF7B1FD04F11803E36002232361002323753A463146284602F0BBF8FFF7A3FD607E237E43EA0020254B186003F049FA1AA3D3E9002303F0BAFA75
:4009800019A3D3E9002303F001F903F04DFD1E4B186003F05BFA06460F4615A3D3E9002303F0A8FA0022194B03F0F2F8184C03F03BFD206032463B46164804F0FFF920683F
:4009C00003F044FA02460B46134804F0F7F900F041FE2068FFF77CFEF8BD00BFAFF300807B14AE47E17A943F6666666666127140CDCCCCCCCCCCFC3FA8490208A84D0208C0
:400A000000006740F84B0208384C020800004040344C0208E4780810FC7808100000000070B50E4603F000FA04460D46304603F0FBF922462B4606F009FC0CA3D3E9002368
:400A400003F058FA04460D460022002303F0C4FC38B10022044B2046294603F099F804460D462046294670BD00807640F8C1631ADCA54C4008B54820FFF77EFD4020FFF7E5
:400A80007BFD6020FFF778FD0E48FFF7C5FD1E220D4B1A72FC212020FFF718FD40212120FFF714FD642002F047FC00212220FFF70DFD0C212320FFF709FD40212420FFF76D
:400AC00005FD08BDEC770810A8490208000000002DE9F0413D210F20FFF760FE98B99C4A136B013313639B4A134003D5013B63F001030133012B03D11C22954B1A7202E0CF
:400B00001E22934B1A722820FFF70EFD924D28702920FFF709FDDFF8A08288F800002A20FFF702FD8D4F38702B20FFF7FDFC8C4C20702C20FFF7F8FC8A4E30702D20FFF737
:400B4000F3FC40B2884B187098F9001095F9003043EA0121854D298094F90020844C97F9003043EA0223238096F9003043EA0020804B1880804804F021F9B4F900107F4815
:400B800004F01CF9B4F90010B5F90000FFF748FF02460B467A4CC4E900237A4804F00EF900F058FDD4E9000103F03EFCFFF790FD01210220FFF776FDD4E9004558A3D3E97F
:400BC00000232046294603F01BFC30B100226E4B2046294603F00AFC68B9002200232046294603F00DFC58B10022684B2046294603F0FCFB20B1664800F062FDBDE8F081B1
:400C00000022624B2046294603F004FC58B10022604B2046294603F0E9FB20B15E4800F04FFDBDE8F08100225C4B2046294603F0E7FB60B13CA3D3E900232046294603F0C8
:400C4000D5FB20B1564800F03BFDBDE8F08136A3D3E900232046294603F0DCFB60B134A3D3E900232046294603F0B6FB20B14D4800F026FDBDE8F0812DA3D3E900232046BC
:400C8000294603F0BDFB60B12BA3D3E900232046294603F0ABFB20B1434800F011FDBDE8F08125A3D3E900232046294603F0B2FB60B123A3D3E900232046294603F08CFB5D
:400CC00020B13A4800F0FCFCBDE8F0811CA3D3E900232046294603F093FB60B11AA3D3E900232046294603F081FB20B1304800F0E7FCBDE8F08114A3D3E900232046294621
:400D000003F088FB50B106A3D3E900232046294603F062FB10B1274800F0D2FCBDE8F08100000000007076400000000000C0564000000000006066400000000000A06640C3
:400D40000000000000D070400000000000F07040A8490208010000801E4C0208314C0208024C02081C4C0208244C0208FE4B02080E4C0208044C0208147908102879081029
:400D8000404C02083C790810008076400000F03F54790810000056405C7908100040564068790810707908107C790810847908109079081098790810104C020808B548203C
:400DC000FFF7DAFB4020FFF7FFFB6020FFF7D4FB0348FFF721FC4022024B1A7208BD00BFF4770810A849020810B501214020FFF76DFB052002F0A0FA1020FFF795FB0002EA
:400E000081B2134C2180134803F0D8FF208803F00BF80DA3D3E9002303F096F900220E4B03F068F803F000FB044603F00FF802460B460A4803F0C2FF00F00CFC2046FFF7B8
:400E400047FC10BDAFF3008000000000E0FFEF401A4C0208A479081000005940B879081008B54820FFF788FB4020FFF785FB6020FFF7AAFB0B48FFF7CFFB60220A4B1A72A6
:400E8000B8212620FFF722FB07211320FFF71EFBB9212620FFF71AFB7F212D20FFF716FB08BD00BF00780810A849020870B5C4210C20FFF773FC0120FFF736FB2F4C20707A
:400EC0000220FFF731FB2E4D28700320FFF72CFB2C4B18702D20FFF727FB2B4B18600420FFF722FB294E30700520FFF71DFB284B1870337840EA032002F096FF0022254B7C
:400F000002F0F8FF03F090FA234B186002F09EFF0022224B02F0EEFF0022214B03F014F90022204B02F034FE03F07EFA1E4B186002F08CFF02460B461C4803F03FFF2A7890
:400F4000237843EA022307EE903AF8EEE77ADFED186A87EEA67A174C84ED007A17EE100A02F074FF02460B46134803F027FF00F071FB2068FFF7ACFB70BD00BF064C0208F3
:400F8000FC4B02083C4C02082C4C02081D4C0208304C02080000703F084C0208000022400000144000004040284C0208D47908100000C844204C0208FC79081010B562B6C1
:400FC00002F008FD00F08EFB02F0AEFD6C4B1868002302221946406803F06AFF694C6A49204602F06FF9B4F90030002B08DB590903F01F03012202FA03F3644A42F821302B
:40100000634C6449204602F05DF9B4F90030002B08DB590903F01F03012202FA03F35B4A42F821305C4C5D49204602F04BF9B4F90030002B08DB590903F01F03012202FA94
:4010400003F3524A42F82130554C5649204602F039F9B4F90030002B08DB590903F01F03012202FA03F3494A42F821304E4C4F49204602F027F9B4F90030002B08DB5909FD
:4010800003F01F03012202FA03F3404A42F82130022000F0EBF900F0E9FA03210120FFF701FB434800F00CFB03210220FFF7FAFA404800F005FB4FF42F7002F03DF900F0CD
:4010C000C9FA03210120FFF7EDFA3B4800F0F8FA03210220FFF7E6FA384800F0F1FA4FF42F7002F029F900F0B5FA354800F0E8FA4FF4FA7002F020F9324B1B68013B042B28
:401100002BD8DFE803F0030B131B23002D4BDB690BB9FFF75BFBFFF77BFB1EE0294B1B6A0BB9FFF7E5FBFFF7FBFB16E0254B5B6A0BB9FFF79FFCFFF7CBFC0EE0214B9B6A42
:401140000BB9FFF73BFEFFF74FFE06E01D4BDB6A0BB9FFF785FEFFF7A9FE1B4C0021204602F0D0FA0021204602F026FB02460021204602F077FB4FF47A7002F0DDF8BBE7BF
:401180000C430208B87A08106D03081000E100E0B07A0810AD030810A87A0810ED030810A07A08102D040810987A08106D040810147A0810207A08102C7A08103C7A0810E5
:4011C0004C7A0810A849020800001D4108B5012000F054FE08BD00BF704700BF5C4AD2F8803303F00F0303F1D00152F8212002F00702032A04D0042A05D092B9554914E04A
:40120000554A116811E003F1C002514951F8222002F01F02112A06D0132A04D04FF4FA4103E04E4901E04FF400418BBB484BD3F8902502F00100D3F88825C2F30172D3F881
:40124000883513F0405F07D0414BD3F88835C3F30173012B02D102E0012300E0002303B108B9032A46D13A48D0F88025C2F31103D0F88425C2F30C02D0F88005C0F30060ED
:401280000130B1FBF2F202FB03F2B2FBF0F131E0012B2FD12E4BD3F8402602F00100D3F80026C2F30172D3F8003613F0405F07D0274BD3F80036C3F30173012B02D102E002
:4012C000012300E0002303B108B9032A12D12048D0F8002602F07F02D0F80036C3F30423D0F80006C0F3044002FB01F2B2FBF3F2B2FBF0F1164BD3F88033C3F3011321FA05
:4013000003F215494A601648D0F89030C3F3072301330069000E0130B2FBF0F08860B2FBF3F3CB600B6103F5742202F23F220D48A0FB0202C2F387420A7503F2E7330A4A38
:40134000A2FB03239B098B61DB03CB61704700BF0000264000127A008C42020800366E010000214083DE1B43D34D621008B50D4802F07AF8FFF730FFFFF730FF0022114640
:40138000042000F043FB084800F0D6FB074B1B6893F8513013B1064800F03EFC00F080FA08BD00BF507E0810E8490208444D02085C7A081008B502F050F8074AD2F888304B
:4013C00043F47003C2F88830BFF34F8FBFF36F8F02F047F808BD00BF00ED00E010B504462146034800F08AFD0028F9D010BD00BF00006640054BD3F80833C3F30803002B72
:40140000F8D0024BD3F84003704700BF00006640124BD3F8CC3F13F0040F1DD00F4BD3F8C02F02F00402C3F8C02FD3F84033DBB25A1ED2B2FD2A0FD8094A116809484354F8
:4014400012680132084B1340002B03DA013B63F07F030133024A1360704700BF00006640684B0208484C02087F00008010B5114C1149204601F026FFB4F90030002B08DBB4
:401480005A0903F01F000121814060320B4840F82210002B08DB590903F01F03012202FA03F3064A42F821300022054B1A7000F019F910BDC87A08101114081000E100E0ED
:4014C000784B020800B5C0F300131BB90122134B5A6002E00122114B9A60C0F340131BB902220E4B5A6002E002220C4B9A60C0F380131BB90422094B5A6002E00422074B2A
:401500009A60C00920B90822044B5A605DF804FB0822024B9A605DF804FB00BF00053240F8B50746012001F007FF0F4C04236360012001F001FF08256560642001F014FFAA
:401540001026A6603846FFF7BDFF4FF4E17001F00BFF6660054B5D60142001F005FF642001F0EAFEF8BD00BF80023240000532402DE9F0410646174C042363600827676062
:40158000642001F0F1FE1025A5603046FFF79AFF4FF4E17001F0E8FE6560DFF83C80C8F80470142001F0E0FE4FF4487001F0DCFEA560300100F0F000FFF784FF4FF4E170A5
:4015C00001F0D2FE6560C8F80470642001F0B4FEBDE8F08180023240000532402DE9F0410646012001F0A8FE184C0423A360012001F0A2FE08276760642001F0B5FE1025AB
:40160000A5603046FFF75EFF4FF4E17001F0ACFE6560DFF83C80C8F804704FF4487001F0A3FEA560300100F0F000FFF74BFF4FF4E17001F099FE6560C8F80470142001F004
:4016400093FE012001F078FEBDE8F081800232400005324008B50120FFF78AFF08BD00BF08B540F08000FFF783FF08BD08B5282001F062FE3020FFF753FF052001F05CFEE7
:401680003020FFF74DFF642001F06EFE3020FFF747FF2020FFF744FF2C20FFF769FF0F20FFF766FF0120FFF763FF0220FFF760FF0620FFF75DFF0020FFF7D2FF08BD00BFAB
:4016C00038B50546002405E0FFF788FF01340A2001F032FE285D0028F6D10A2001F02CFE38BD00BF08B5084B1B783BB9074A0849084801F011FC0122034B1A70054A1368F3
:4017000043F00043136008BD784B02080C4D0208D07A0810000066401F4B98422DD00CD840282ED003D8E8B1102828D02FE0802829D0B0F5807F28D029E0184B984228D00A
:4017400006D8B0F1204F0DD0154B984212D01EE0144B98420AD00133984209D0023B984215D101E0002070470F4870470F4870470F4870474FF4A0007047074870470D48B6
:4017800070470D4870470D487047034870470C4870474FF4A400704706005200010000F0090000A0040000F0010052000200520003005200010050000200500005005200D3
:4017C000FF00520038B5124B1B6893F83130012B04D840F2C3110F4801F0D2FD0C4B1D682A6AB5F8B03013442C46D5F8B420D358002B0BDB084B1868FFF78EFF6B680122CB
:401800009A6063689B68002BFBD138BD034838BD444D0208107B08107C4B0208020050001A4B186128B102230370FF23437000234380174B1B6893F850202AB300B583B0A4
:40184000B3F93830ADF80030002301931149684601F038FDBDF90030002B08DB590903F01F03012202FA03F30B4A42F82130084B1B6893F8513023B102220849012000F0FE
:4018800077FA03B05DF804FB704700BF7C4B0208444D0208C143020800E100E07944020808B50248FFF7BCFF08BD00BF904B020838B50B4B1B68D3F8B4301B58002B0DDA1D
:4018C0000D4604460B0C1B0423B140F2D521054801F056FDA9B26160002038BD024838BD444D0208507B081001008A0038B50368002B01DA002300E0094B73B90D46044691
:40190000C2600B0C1B0423B140F2BB21054801F037FDA9B2A160002038BD014838BD00BF01008A00507B081038B504460D4619B99921084801F024FD074B1B68D3F8B43023
:401940001B59002B03DAE3682B60002038BD034838BD00BF907B0810444D020801008A00254B1B6893F8313083423AD900293AD00B6813F01F0F38D170B50D4604461E4BF6
:401980001B6893F83130984204D340F2C3111B4801F0F6FC184B1B68186AB3F8B03004FB0304174E34602A68D2080021686802F08BFD00212046FFF77BFF346825B940F24F
:4019C00093310E4801F0DCFC2A4600212046FFF78DFF60B900210A4B1868FFF769FF40B970BD084870470748704706487047064870BD054870BD00BF444D0208507B0810B4
:401A0000944B020803018A0001018A0010B504461346B2B9A9B9124B1B6893F83130984204D340F2C3110F4801F0AAFC0C4B1B681A6AB3F8B03004FB03240B4B1C600020FC
:401A400010BD43B149B1084A51609360111D2046FFF786FF10BD054810BD044810BD00BF444D0208507B0810944B020803018A002DE9F0411B4B1B68DC68236883422CD929
:401A80000D464609A0EB4610012303FA00F819B901F0E3FC074600E00027124B18680368002B01DA002300E00F4B83B9626852F8263018EA030F05D023EA080342F82630B2
:401AC000002400E0094C0021FFF7F2FE00E0084C25B9384601F0C5FC00E0064C2046BDE8F08100BF944B020801008A00020188000301880004018A000B4B1B68DB681A681F
:401B000082420CD94109A0EB4110012202FA00F05B6853F82130184203D004487047044870470448704700BF944B02080101880004018A0000018800024B1B680BB9014B08
:401B400018607047A04B02082DE9F8430446884691461D46089F2C4B1B681BB9B5212B4801F00EFC284B1B682C2000FB04F01C18EEB21E50C5F3072363602D0CA560244B20
:401B80001B6893F831309E4204D340F2C311214801F0F6FB1E4B1B68196AB3F8B02006FB02162661666893F832309E4204D340F2DF11184801F0E4FB154B1B681D6A803640
:401BC00005EB46156561A668330C1B0423B14FF4FF71104801F0D4FB330C1B0423B140F2FF110C4801F0CCFBB3B243EA0646AE60C4F81C90C4F820800023A36117B1B7F9FA
:401C00000030A381BDE8F883A04B0208D07B0810444D0208507B0810F0B58FB0044618B95221274801F0ACFBA369072B03D95621234801F0A5FBE36A1BB95821204801F061
:401C40009FFB236B1BB959211D4801F099FB07AD04F114060FCE0FC537682F6002AD26460FCE0FC533682B60164B1B68B3F93620079B1344ADF83030089B0D93A26AE16AF2
:401C80000CAD00953B460A98FFF75EFF00210091069B0A460598FFF757FF216B284601F011FBBDF93030002B08DB590903F01F03012202FA03F3044A42F821300FB0F0BDE8
:401CC000D07B0810444D020800E100E0F8B506460F461D4614461AB9FD211F4801F050FB1E4B1B681BB9FE211B4801F049FB1B4B1B682C2101FB063001FB07314B6801229D
:401D000002FA03F31B04466802FA06F60269EAB18F69EFB91268002A01DA002200E0104AC2B92288134323600369DC6001238B614D620469330C1B0423B140F2BB21094808
:401D400001F01EFBB2B2A2600020F8BD0648F8BD0648F8BD0548F8BDD07B0810A04B020801008A00507B081004028A0007028A00F8B505460F4616460E4B1B6823B94FF489
:401D8000AF710D4801F0FCFA0A4B1B682C2404FB0534236A23B94FF4B171074801F0F0FAE369B34204D9236A43F826700020F8BD0248F8BDA04B0208D07B08100A028A0031
:401DC00070B582B000230193044620B940F2D111284801F0D5FA236923B94FF4E971254801F0CEFA636923B940F2D311214801F0C7FA236A23B94FF4EA711E4801F0C0FA52
:401E00006369DD682A0C20D012041A601B682069194B1B68D3F8B430C358002B15DA01A9FFF782FD60B9019803681E0CDBB2E269934206D2226A52F8233013B1984700E06D
:401E4000002631462069FFF733FDADB275B16369ADB21D601B68636A1BB198470023636202E0A36A03B198470023A36163691B6802B070BDD07B0810444D020810B5044622
:401E8000074B1B6823B940F2B111064801F078FA034B1B682C2000FB0430FFF791FF10BDA04B0208D07B081010B4D0F8003303F00F03072B06D900230DE0D0F84043CC5485
:401EC000013300E000239342F7D306E0D0F8404321F8134001339342F8D35DF8044B704710B51446D0F80833C3F308039A4200D31C462246FFF7D8FF204610BD036813F472
:401F0000006F01D0802200E04022D0F80832C3F30803934203D0C0F84012012070470020704700BF10B4D0F8003203F00F03072B06D900230DE0CC5CC0F84042013300E040
:401F400000239342F7D306E031F81340C0F8404201339342F8D35DF8044B704710B51446036813F4006F01D0802200E04022D0F80832C3F30803D31AA34200D81C462246E8
:401F8000FFF7D0FF204610BD02E0C0F84012013A002AFAD1704700BF10B51446036813F4006F01D0802200E04022D0F80832C3F30803D31AA34200D81C462246FFF7E4FFD2
:401FC000204610BD10B54A6841F201039A4231D1D0F80833C3F30803B3B10B6A43F040030B620B7873B1D0F8043343F48033C0F80433D0F8043323F48033C0F80433D0F8A3
:40200000043301E0D0F840330B6A43F020030B620B6A23F010030B62036E23F4204303660023C0F8C83F0123C0F8C03FD0F8C03F202221E0D0F80832C3F30802D0F808322E
:40204000C3F3C03313440A6BD21A4A630A6A12F0080F05D1CA6A1A44CA628A6AD31A8B620B6A43F004030B620B6A23F001030B620023C0F8883F1022D0F84C4F40F20113D1
:402080001C420DD0036823F00043036000238366C366036843F000430360036842F040024FF080534B604B6C0BB11046984710BDD0F80C3F13F0020F1DD00222C0F8002F18
:4020C000D0F8002FD0F8002F12F0040F02D04FF4001001E04FF480108A6802438A604A68B2F5B81F07D00A7B12B14FF4C01201E04FF4B0124A6013F4807F03D08A6842F4EE
:4021000000028A6013F0010F03D08A6842F480028A6040F21112134202D04FF4C0134B60704700BF0023C0F8C83FC0F8883F836E23B140F21713C0F8083F704740F21313F6
:40214000C0F8083F182383664FF4B8134B60704738B5D0F80C4F036E23F4807303660023C0F8C83FC0F8883FC0F8083F40F21713C0F8003FD0F8003F8B6823F480338B6076
:402180004B7B13B18B69CB610BE08D69D0F80822C2F30802D0F80832C3F3C0331344EB1ACB6140F201131C421BD0036E9B0F032B05D114F4827F14BF0123002300E00123DB
:4021C0005BB1036823F00043036000238366C366036843F00043036003684FF080534B601BE00B7893B1D0F8043343F48033C0F80433D0F8043323F48033C0F80433D0F8F4
:4022000004330123C0F8C03FD0F8C03F0B7B0BB10B4B01E04FF080534B604A6C72B14B7B13B14FF4802001E04FF400308B6813F0F87301D04FF400231843904738BD00BF77
:402240000000101070B505460C4691F8243013F0FF0F0ED1CB6A63B94B6C0BB108209847E36AB3FA83F35B0984F824300123C5F8883F94F8243013F0FF0F16D063783BB1FA
:402280002B6813F4006F01D0802202E0402200E00122FF212846FFF77FFE236B18442063236A43F00803236270BDE26A012A11D963780BB1013A00E00122A16A2846FFF7CB
:4022C0004DFE236B03442363E36A1B1AE362A36A1844A062D5F80832C3F30803802B23D0E36A012B20D101F0B8F8A36A1B78C5F840324026C5F8806FD5F8803F01F0B1F88E
:40230000236B013323630023E362A36A0133A362C5F8886F63783BB1236A43F002032362636C0BB10420984770BD00BF38B54B68B3F5A81F03D14FF4C0134B6038BD4B681C
:40234000B3F5A01F4DD10C4605464A69012A11D94B780BB1013A00E0012221692846FFF7FDFDA3690344A36163691B1A6361236903442361D5F80832C3F30803802B14D004
:402380006369012B11D101F068F823691B78C5F840324023C5F8803FD5F8803F01F061F8A3690133A361002363616369CBB9237B33B14023C5F8883F4FF4A813636005E065
:4023C0000023C5F8883F4FF4B0136360637843B1A36843F40033A360636C13B14FF48030984738BD70B504460D468A6C82B3036813F4803F06D0D0F84C3F13F0400F03D060
:40240000022002E0002000E00020236E13F4006F06D1D4F84C3F13F0800300D001231843C0B190470123C4F8C03FD4F8C03F024648B91023C4F8403FD4F8403F40F2D11364
:40244000C4F8483F07E040F2C113C4F8483F02E0002200E00022D4F8043243F48033C4F80432D4F8043223F48033C4F80432D4F804320AB9012300E00223E366002A59D1BC
:40248000666E06F010066B6C23B10EB1012000E0022098477EB141F202036B602B6A43F001032B626B6B2B63002385F824300123C4F8883F70BD41F201036B602B6A43F04F
:4024C00010032B620123C4F8C83F2B78BBB1EB6BBBB1236E43F400532366ED6B802D05D9A5F18003802B0ED8813D0DE0013D236E43F4004323660023C4F8C83F04E00025E7
:4025000002E0002500E03F25236813F4006F01D0802300E040239D4204D34FF42071064800F02EFFD4F8043323F0FF03EDB21D43C4F8045370BD00BF107C081038B54B6849
:40254000B3F5881F03D0B3F5901F1AD038BD0B69D0F840231A708B6901338B614B69013B4B612BB10B6901330B610423836638BD0B7B13B14FF4C01301E04FF4B0134B6043
:4025800038BD0C4605464A690969FFF7A9FCA3690344A36163691B1A6361226910442061012B24D82B6E23F480732B666369012B16D12B6813F4006F01D0802300E0402352
:4025C00023B94FF42071184800F0DAFED5F8043323F0FF03C5F804334FF48813636038BD0023C5F8C83F4FF4B013636038BD402B01D89C1E00E03F242B6813F4006F01D0A0
:40260000802300E040239C4204D34FF42071064800F0B6FED5F8043323F0FF02E3B21343C5F8043338BD00BF107C081038B5CB6B002B50D00B78002B3FD00C460546D0F85A
:402640000423D2B20132896BFFF74AFC236C03442364E36B1B1AE363A26B1044A063802B06D9A3F18002802A0FD8A3F181040DE02B6E43F400432B66E36B0BB15C1E00E083
:4026800000240023C5F8C83F00E03F242B6813F4006F01D0802300E040239C4204D34FF42071104800F06CFED5F8043323F0FF02E3B21343C5F8043338BD0123C3668A6BA3
:4026C0000B6CD0F84003D0540B6C01330B64CB6B013BCB6338BD0223C3660023C0F8C83F38BD00BF107C0810F8B50B78012B03D00C7A1CB9002702E0002700E00127002813
:4027000000F0A780002900F0A680002A00F0A58016460C460546013BDBB2022B03D94F214F4800F02DFE637803B163791BB150214B4800F025FE94F90330002B03DA51218F
:40274000474800F01DFE237913F0010F03D05221434800F015FE2369102B03D95321404800F00EFEE368102B03D954213C4800F007FE637913B14FF4803100E00021E27961
:4027800012B14FF4807300E000230B4343F400632B60A37913B94FF4006300E000232269013A02F00F021A43E368013B1B01DBB21343227843EA82732B6617B140F20733EC
:4027C00001E040F20713C5F800330FB1254B00E0254B2B6763780BB17F2300E00023C5F80433E3785B00DBB2227943EA0243C5F810331E4BC5F80032A3780BB1402300E0B8
:402800000123C5F804320023C5F8C83EC5F8883EC5F8C83FC5F8883FC5F8083F2378022B02D040F2D11300E00023C5F8483F63783370A37873704FF0805373600020B06044
:40284000B06130623064F0633063F0627064B064F8BD0748F8BD0648F8BD0548F8BD00BF547C081003002A0013102A00070101000120AA0038B505460C4621B940F2C321D4
:40288000194800F07DFD2B6E9B0F012B17D1174B2344174A93421ED9A4F5BD13A3F5D66302F5611202F56162934216D9A4F57104A4F533440F4B9C4211D80F4838BD84B11E
:4028C000286EC0F303102B6E03F00F0318440230B4FBF0F038BD094838BD094838BD002038BD002038BD00BF547C081020AD88FF405B730040555C0440420F00801A0600E7
:40290000A08601002DE9F84307468846914622B940F21221624800F033FD08F1FF34614B9C4204D940F213215D4800F029FD3B6E9B0F012B0DD149463846FFF79BFF05462A
:40294000D7F8003323F40073C7F80033564B3B67A2E0544B9C421FD8544B984509D8A9F5BD13A3F5D663524A934218D90021012328E0504B984507D84F4B4B444F4A934267
:4029800013D9002101231DE04D4B4B444D4A934212D90021012315E00021012312E0002141F288352E460B460CE000214FF461754FF4C8660B4605E001214FF4BE754FF47C
:4029C0001B760023002B66D13F4BB3FBF9F3B6FBF3F404FB03F2964200D90134102C00D910240F2C8CBF00220122B5FBF3F606FB03F39D4200D90136102E00D91026A5198D
:402A0000B9FBF5F50FE022B10F2C09D80134002206E00F2E04D801360F2C8CBF00220122A519B9FBF5F5454502D9A3191F2BEAD941B1D7F8003343F40073C7F80033234B3A
:402A40003B6707E0D7F8003323F40073C7F80033154B3B67E31F092B04D940F283511C4800F08EFC3B6E23F0F003013C2401E4B223433B66731F0B2B04D94FF4B46114484F
:402A800000F07EFC3B6E23F00F03013E06F00F061E433E6600E000252846BDE8F88300BF547C08103F420F0013102A00A0860100502D1900801A060020AD88FFA0432100C3
:402AC000807E25FFC02BAF0000CA9A3B03002A00947C08108868704770B5044615460E4621B940F2D341554800F04AFC73680BB1B36823B940F2D441504800F041FC96F945
:402B00000030002B04DA40F2D5414C4800F038FC0023C4F8483F6B6813F0805F00F0888033785B00DBB243F001034FF48032AA6072682A61B2686A610022AA61EA61327B11
:402B40002A7301226A7340F21712C4F8002FD4F8002FD4F8042242F48032C4F80422D4F8042222F48032C4F80422D4F804226A68B2F1805F04D1C4F840320223A36609E0BF
:402B8000626E12F0200F01D0092200E00122A266C4F840322B7843B32B7B33BB6B69012B23D9236E43F4807323666E69802E01D8023E00E03F26236813F4006F01D080231A
:402BC00000E040239E4204D34FF420711C4800F0D7FBD4F8043323F0FF03F6B21E43C4F804634FF490136B6015E0236813F4006F01D0802300E0402323B94FF42071104837
:402C000000F0BEFBD4F8043323F0FF03C4F804334FF488136B6000F020FC0123C4F8C83F40F21313C4F8083F00F01BFC002000E0044840F2D113C4F8483F70BD547C081028
:402C4000107C08100220AA00F8B5044615460E4621B940F2B7514B4800F092FBB36833B1736823B94FF4B761464800F089FB96F90030002B04DA40F2B951424800F080FB0E
:402C80000023C4F8483F6B6813F0805F73D037787F00FFB24FF48033AB6073682B61B3686B610023AB61EB61327B2A736B7340F21713C4F8003FD4F8003FD4F8043243F44A
:402CC0008033C4F80432D4F8043223F48033C4F80432D4F804326B68B3F1805F09D1C4F840724023C4F8803FD4F8803F0223A36617E0636E13F0200F01D0092300E001233F
:402D0000A3666B695BB900F0A8FBC4F840724023C4F8803FD4F8803F00F0A3FB01E0C4F840724FF4A0136B606B780BB1402500E00125236813F4006F01D0802300E04023D8
:402D40009D4204D34FF43A710F4800F019FBD4F8043223F0FF032B43C4F8043200F07DFB0123C4F8883F40F21313C4F8083F00F078FB002000E0054840F2D113C4F8483F6A
:402D8000F8BD00BF547C0810107C08100220AA0070B504460E46D0F88C3E13F0010F07D04FF480534B600123C0F8803ED0F8803ED4F84C5F40F201131D420FD0336A15F486
:402DC000807F02D04FF4807200E08022134333620023C4F8C83F45F010050EE015F0100F0BD0D4F80833C3F3080333B1F36B23B10123C4F8C43FC4F8C83FD4F8CC3F13F0E5
:402E0000010F08D031462046FFF710FC0123C4F8C03FD4F8C03F15F0100F0AD031462046FFF7D0F81023C4F8403FD4F8403FD4F84C5F15F0C00F0DD031462046FFF7D2FA08
:402E40000123C4F8803ED4F8803EC023C4F8403FD4F8403FD4F88C3F13F0410F08D031462046FFF7EFF90123C4F8803FD4F8803F70BD00BF70B506460D46D0F8004E14F050
:402E8000020F0AD0836E2BB1002383668B6843F080738B604FF4C0136B6014F0010F05D029463046FFF704F924F0040414F0080F08D029463046FFF741FB0123C6F8C03FA1
:402EC000D6F8C03F14F0040F08D029463046FFF72DFA0123C6F8803FD6F8803F6B68B3F5C01F03D129463046FFF732F96B68B3F5B01F03D129463046FFF714F970BD00BFC0
:402F000008B54B6813F4801F02D0FFF7B3FF08BDFFF73EFF08BD00BF002800F0A48170B50546002900F0A18116460C460B78022B03D93F21A24800F023FA637B023BDBB264
:402F4000062B03D940219E4800F01AFAA37B3BB1022B05D0032B03D04121994800F010FA94F82130012B03D94221954800F008FA94F82830012B03D94321914800F000FA85
:402F80002378012B06D86368083B082B94BF0023012307E0A37F2BB16368013B062B94BF002301231BB14521854800F0E9F9A368053B042B03D94621814800F0E1F96369ED
:402FC000FF2B03D947217E4800F0DAF9A369FF2B03D948217A4800F0D3F9A37C6BB1237833B9A368092B05D1A37B2BB1012304E0012302E0012300E000231BB14A217048EC
:4030000000F0BEF9636B23F4366323F00D031BB14C216B4800F0B4F9E36B23F4EE6323F003031BB14D21664800F0AAF92378022B01D1A37F13B16268013A00E00022237F4C
:4030400013B14FF4803100E00021A368082B02D84FF4006300E000230B4302F00F02134343F000732B60226B2B6813F4006F01D0802300E040239A4203D36221504800F0F4
:403080007FF9A26B2B6813F4006F01D0802300E040239A4203D36321494800F071F9626A2B6813F4006F01D0802300E040239A4203D36421424800F063F923781B0603F062
:4030C00040732B64637F0BB1402200E00022A37C13B14FF4806300E000231343227C12B14FF4807200E000221343627C12B14FF4007200E000221A43E36A013B1B0403F4E8
:4031000070231343627B013A02F007021343A27B120102F030021343AB64237B13B14FF4807200E00022E37B23B92378022B03D1012302E0012300E0002313B14FF400736E
:4031400000E000231A43A368013B03F00F031343C5F80033227DA3691B0403F47F031343C5F81033E26AD5F8003303F00F0303339A4201D3102A03D97A21114800F000F99A
:40318000E37F23B12378012B03D0002302E0002300E0012313B14FF4807200E00022637B013B03F007031A43A37B1B0103F0300313436B64237B2BB14FF4807203E000BFCE
:4031C000147D08100022A368013B03F00F0313432278012A02D14FF4803200E000221343C5F8003294F83030C5F8043394F8203013B14FF0007200E0002294F82130012B52
:4032000002D14FF0807300E00023134394F82820012A02D14FF4803200E00022134394F8242013432B6594F83830C5F80432636B23F4926323F002031B051B0DC5F8C83F76
:40324000E36B23F08C035B055B0DC5F8883F76B1002070603060B060F0603062F0623063044B736370BD04487047034870BD002070BD00BFEFCDAB000160AA0038B50D4B04
:403280009A680D4B9A420FD10D46044621B940F237110A4800F074F804F11003064A52F8230042F8235038BD1030054B53F8200038BD00BF00ED00E000400208547D081043
:4032C0000000081048B338B504460D464368072B03D93221134800F053F8B4F900306268002B08DB5201D2B203F1604303F5614383F8002305E003F00F035201D2B20A491E
:40330000CA540A4B9A680A4B9A4208D12946B4F90000FFF7B3FF002038BD06487047002038BD00BF547D081014ED00E000ED00E0004002080100560010B5044605E0084BDD
:40334000186800F081F8A4F50044B4F5004FF6D8044B186800FB04F000F076F810BD00BFA8420208A442020808B5034B1B7800FB03F000F069F808BDA042020801BEFEE703
:4033800038B50D46044C18220146204601F0C1FEA5610020FFF7F2FFF0480208FEE700BF08B50268254BDA6142681A6282685A62C2689A620269DA6242691A6382695A63B8
:4033C000C2699A631E4A916AD963D16A1964516A5964516B9964926BDA64F1EE103A13F0900F27D0026A154B1A65426A5A65826A9A65C26ADA65026B1A66426B5A66826BCD
:403400009A66C26BDA66026C1A67426C5A67826C9A67C26CDA67026DC3F88020426DC3F88420826DC3F88820C26DC3F88C20026EC3F89020FFF7B2FF08BD00BFF04802085B
:4034400000ED00E0000000000230800803D001300238FCD100BF00BF7047EFF3108072B6704780F310887047014B1860704700BF444D02082DE9F8430E46074618B93A217F
:403480007548FFF77DFF1EB93B217348FFF778FF002F00F0DA80002E00F0DA8032686F4B13401BB14A216C48FFF76AFF72686C4B13401BB14B216848FFF762FFB36813F05F
:4034C000FC2F03D04C216448FFF75AFFF36813F0FC2F03D04D216048FFF752FF337D032B03D94E215C48FFF74BFFB369B3F5803F03D34F215848FFF743FFF36D072B03D991
:4035000050215548FFF73CFF336EB3F5803F03D351215148FFF734FF736EB3F5803F03D352214D48FFF72CFF736843F000437B60B3683B61F3687B613369BB61337D9B07CF
:40354000FB61B3693B62336803F46068736803F00409002435E02546A31D06EB83035A68404B13401BB163213B48FFF709FFAB1D06EB8303596805F1200247F822105B6869
:4035800013F0012F0BD1B8F5606F08D1B9F1000F05D04FF47842344B23F8152003E00022314B23F81520726F02F11C7303F58033520093FBF2F31BB22C4A42F825300134A2
:4035C000E4B20F2CC7D9F36DC7F81832F36DC7F81032336EC7F82832336EC7F82032736EC7F83832736EC7F8303296F87030DBB1B36EB3F1804F03D382211748FFF7C0FE3E
:40360000F36E23F44F0323F0FF031BB183211248FFF7B6FE6FF04043C7F80433B36EC7F80033F36EC7F84433D7F8003F3F2B02D0D7F8003F13B90B23C7F8003F336843F493
:4036400000133B600020BDE8F8830948BDE8F8830748BDE8F88300BF087F08100811DF0001FE302088CA887E484D0208684D02080100060038B50D46044618B9B52117488A
:40368000FFF77EFE2CB30023236063604FF0031222616261A361E361236206E003F12002002144F822100133DBB20F2BF6D90023C4F81832C4F82832C4F838325DB16FF0C2
:4036C0004043C4F804330020C4F84003C4F8440338BD034838BD002038BD00BF087F08100100060008B50368002B0ADBD0F8A032002BFBDB036843F0004303600220FFF754
:4037000033FE08BD38B505460C46012904D940F271110648FFF734FE012C04D16B6843F480336B6038BD01236B6238BD087F081038B505460C460F2904D94FF4157108481C
:40374000FFF71EFE0F2C07D8203455F8243013F0012F03D0002038BD002038BD012038BD087F081038B505460C460F2904D940F222211048FFF704FE0F2C14D821462846E3
:40378000FFF7D6FF80F0010010F0FF0F05D06B6813F0080F09D1002038BD6B6813F0040F05D1002038BD002038BD012038BD012038BD00BF087F081038B505460C460F29D9
:4037C00004D940F27B210648FFF7DAFD0F2C04D8603455F8240080B200E0002000B238BD087F0810F8B506460C4615460F2904D940F27B311948FFF7C3FD0F2C2BD87368A6
:4038000013F0800F22D104F1200356F8233013F4806F1BD07768C7F302170137012303FA07F7736813F4807F02D1102F00D9102721463046FFF796FF20B9ADB2B5FBF7F521
:403840002DB203E03FB295FBF7F52DB2044B33F81430ED1A2DB22846F8BD00BF087F0810484D020870B505460C4616460F2904D940F21F411648FFF783FD0F2C23D86B68D4
:4038800013F0020F21D1324621462846FFF7AAFF42F2107303FB00F2002807DD0D4B53F8240000EBD07002EB600306E0094B53F8240000EBD070A2EB6003064A52F824009F
:4038C00093FBF0F002E0002000E0002000B270BD087F0810684D020870B5064614461D4621B140F29E410E48FFF74AFDB4F1804F04D340F29F410A48FFF742FD012D04D988
:403900004FF494610648FFF73BFD012D05D1D6F800331C43C6F8004370BDC6F8044370BD087F081070B504460D46164621F44F0323F0FF0323B140F2ED410C48FFF720FD3B
:40394000012E04D940F2EE410848FFF719FD012E05D1D4F844331D43C4F8445370BDD4F8443323EA0505C4F8445370BD087F081070B539B900240AE015F8010BFDF72EFD80
:40398000013402E016460D460024B442F4DB204670BD00BF70B561B900240FE0FDF72AFDC0B2287001340A2808D00D2806D0013502E016460D460024B442EFDB204670BD07
:4039C00008B502490248FFF79BFA08BDA84D02080000674010B5144B1B788BB9134C144A14492046FEF780FE134A14492046FEF789FF13491348FFF765FC01220A4B1A70E4
:403A0000104BB3F90030002B08DB590903F01F03012202FA03F30C4A42F82130034A136843F00043136010BDE04B020800006740A84D0208447F081084D71700A086010007
:403A4000C1390810C07A081000E100E038B50446264B1A68916892F8703003F00203DBB243F08043C1F800340369FF2B0AD89168B2F874200A44916821F47F411B029BB237
:403A80000B439360194B1A68906892F87310032303FA01F592F8703092F8721003FA01F1294303F002030B4343F00043C0F800349368D3F800340E4D00212846FFF7DAFDD7
:403AC000A1682846FFF7D6FC01234FF4803200212846FFF701FF6368012B05D901224FF480312846FFF71EFF38BD00BF444D020800001D4108B5084B1B7963B9074908486F
:403B0000FFF7E0FB044B5B792BB90122024B5A710448FFF79BFF08BDE44B0208553B0810907A0810947F081008B5084B1B7913F0010F06D1FFF7DEFF044A137943F0010331
:403B400013710348FFF7CEFD08BD00BFE44B020800001D4110B5094BD3F81042072C04D940F231610648FFF70BFC044BC3F81042D3F81022D3F8103210BD00BF00001D41F5
:403B8000587F081081F0004102E000BF83F0004330B54FEA41044FEA430594EA050F08BF90EA020F1FBF54EA000C55EA020C7FEA645C7FEA655C00F0E2804FEA5454D4EB8B
:403BC0005555B8BF6D420CDD2C4480EA020281EA030382EA000083EA010180EA020281EA0303362D88BF30BD11F0004F4FEA01314FF4801C4CEA113102D0404261EB410178
:403C000013F0004F4FEA03334CEA133302D0524263EB430394EA050F00F0A780A4F10104D5F1200E0DDB02FA0EFC22FA05F2801841F1000103FA0EF2801843FA05F35941E6
:403C40000EE0A5F120050EF1200E012A03FA0EFC28BF4CF0020C43FA05F3C01851EBE37101F0004507D54FF0000EDCF1000C7EEB00006EEB0101B1F5801F1BD3B1F5001F7A
:403C80000CD349085FEA30004FEA3C0C04F101044FEA445212F5800F80F09A80BCF1004F08BF5FEA500C50F1000041EB045141EA050130BD5FEA4C0C404141EB010111F454
:403CC000801FA4F10104E9D191F0000F04BF01460020B1FA81F308BF2033A3F10B03B3F120020CDA0C3208DD02F1140CC2F10C0201FA0CF021FA02F10CE002F11402D8BF08
:403D0000C2F1200C01FA02F120FA0CFCDCBF41EA0C019040E41AA2BF01EB0451294330BD6FEA04041F3C1CDA0C340EDC04F11404C4F1200220FA04F001FA02F340EA03000D
:403D400021FA04F345EA030130BDC4F10C04C4F1200220FA02F001FA04F340EA0300294630BD21FA04F0294630BD94F0000F83F4801306BF81F480110134013D4EE77FEA0A
:403D8000645C18BF7FEA655C29D094EA050F08BF90EA020F05D054EA000C04BF1946104630BD91EA030F1EBF0021002030BD5FEA545C05D14000494128BF41F0004130BD6A
:403DC00014F580043CBF01F5801130BD01F0004545F0FE4141F470014FF0000030BD7FEA645C1ABF194610467FEA655C1CBF0B46024650EA013406BF52EA033591EA030FC1
:403E000041F4002130BD00BF90F0000F04BF0021704730B54FF4806404F132044FF000054FF0000150E700BF90F0000F04BF0021704730B54FF4806404F1320410F00045FF
:403E400048BF40424FF000013EE700BF42004FEAE2014FEA31014FEA02701FBF12F07F4393F07F4F81F06051704792F0000F14BF93F07F4F704730B54FF4607401F00045B7
:403E800021F0004120E700BF50EA010208BF704730B54FF000050AE050EA010208BF704730B511F0004502D5404261EB41014FF4806404F132045FEA915C3FF4DCAE4FF0CB
:403EC00003025FEADC0C18BF03325FEADC0C18BF033202EBDC02C2F1200300FA03FC20FA02F001FA03FE40EA0E0021FA02F11444C1E600BF70B54FF0FF0C4CF4E06C1CEA9C
:403F000011541DBF1CEA135594EA0C0F95EA0C0F00F0DEF82C4481EA030621EA4C5123EA4C5350EA013518BF52EA033541F4801143F4801338D0A0FB02CE4FF00005E1FBC3
:403F400002E506F00042E0FB03E54FF00006E1FB03569CF0000F18BF4EF0010EA4F1FF04B6F5007F64F5407404D25FEA4E0E6D4146EB060642EAC62141EA55514FEAC520EF
:403F800040EA5E504FEACE2EB4F1FD0C88BFBCF5E06F1ED8BEF1004F08BF5FEA500E50F1000041EB045170BD06F0004646EA010140EA020081EA0301B4EB5C04C2BFD4EB66
:403FC0000C0541EA045170BD41F480114FF0000E013C00F3AB8014F1360FDEBF002001F0004170BDC4F10004203C35DA0C341BDC04F11404C4F1200500FA05F320FA04F0ED
:4040000001FA05F240EA020001F0004221F0004110EBD37021FA04F642EB06015EEA430E08BF20EAD37070BDC4F10C04C4F1200500FA04F320FA05F001FA04F240EA0200C0
:4040400001F0004110EBD37041F100015EEA430E08BF20EAD37070BDC4F1200500FA05F24EEA020E20FA04F301FA05F243EA020321FA04F001F0004121FA04F220EA02001D
:4040800000EBD3705EEA430E08BF20EAD37070BD94F0000F0FD101F00046400041EB010111F4801F08BF013CF7D041EA060195F0000F18BF704703F00046520043EB03035E
:4040C00013F4801F08BF013DF7D043EA0603704794EA0C0F0CEA135518BF95EA0C0F0CD050EA410618BF52EA4306D1D181EA030101F000414FF0000070BD50EA410606BF4B
:404100001046194652EA430619D094EA0C0F02D150EA013613D195EA0C0F05D152EA03361CBF104619460AD181EA030101F0004141F0FE4141F470014FF0000070BD41F0F7
:40414000FE4141F4780170BD70B54FF0FF0C4CF4E06C1CEA11541DBF1CEA135594EA0C0F95EA0C0F00F0A7F8A4EB050481EA030E52EA03354FEA013100F088804FEA033359
:404180004FF0805545EA131343EA12634FEA022245EA111545EA10654FEA00260EF000419D4208BF964244F1FD0404F5407402D25B084FEA3202B61A65EB03055B084FEA37
:4041C00032024FF480104FF4002CB6EB020E75EB030E22BFB61A754640EA0C005B084FEA3202B6EB020E75EB030E22BFB61A754640EA5C005B084FEA3202B6EB020E75EBC0
:40420000030E22BFB61A754640EA9C005B084FEA3202B6EB020E75EB030E22BFB61A754640EADC0055EA060E18D04FEA051545EA16754FEA06164FEAC30343EA52734FEA10
:40424000C2025FEA1C1CC0D111F4801F0BD141EA00014FF000004FF0004CB6E711F4801F04BF01430020B4F1FD0C88BFBCF5E06F3FF6AFAEB5EB030C04BFB6EB020C5FEA99
:40428000500C50F1000041EB045170BD0EF0004E4EEA113114EB5C04C2BFD4EB0C0541EA045170BD41F480114FF0000E013C90E645EA060E8DE60CEA135594EA0C0F08BF56
:4042C00095EA0C0F3FF43BAF94EA0C0F0AD150EA01347FF434AF95EA0C0F7FF425AF104619462CE795EA0C0F06D152EA03353FF4FDAE1046194622E750EA410618BF52EA10
:4043000043067FF4C5AE50EA41047FF40DAF52EA43057FF4EBAE12E74FF0FF3C06E000BF4FF0010C02E000BF4FF0010C4DF804CD4FEA410C7FEA6C5C4FEA430C18BF7FEA2A
:404340006C5C1BD001B050EA410C0CBF52EA430C91EA030F02BF90EA020F0020704710F1000F91EA030F58BF994208BF90422CBFD8176FEAE37040F0010070474FEA410C30
:404380007FEA6C5C02D150EA013C07D14FEA430C7FEA6C5CD6D152EA033CD3D05DF8040B704700BF8446104662468C461946634600E000BF01B5FFF7B7FF002848BF10F17F
:4043C000000F01BD4DF808EDFFF7F4FF0CBF012000205DF808FB00BF4DF808EDFFF7EAFF34BF012000205DF808FB00BF4DF808EDFFF7E0FF94BF012000205DF808FB00BF8C
:404400004DF808EDFFF7CEFF94BF012000205DF808FB00BF4DF808EDFFF7C4FF34BF012000205DF808FB00BF4FEA4102B2F1E04324BFB3F5001CDCF1FE5C0DD901F0004C63
:404440004FEAC0024CEA5070B2F1004F40EB830008BF20F00100704711F0804F21D113F13872BCBF01F00040704741F480114FEA5252C2F11802C2F1200C10FA0CF320FAD7
:4044800002F018BF40F001004FEAC1234FEAD32303FA0CFC40EA0C0023FA02F34FEA4303CCE77FEA625307D150EA01331EBF4FF0FE4040F44000704701F0004040F0FE40AF
:4044C00040F40000704700BF02440346934202D003F8011BFAE770472DE9F04788B0002B149F1299109EDDF84CA01D4627F02007BBBF03F100431D4600232D231446B8BFB7
:404500001446462F0B7003D0452F03D1013601E0032300E0022307AA049206AA03928DE8480422462B4600F07BFF472F804602D1119BDB0728D5462F08EB060911D198F8C0
:404540000030302B0AD10022002320462946FFF739FF18B9C6F10106CAF80060DAF8003099440022002320462946FFF72BFF08B9302202E0CDF81C9006E0079B994503D91B
:40458000591C07911A70F8E7079B159AC8EB03034046136008B0BDE8F08773B503460029B8BF494203F8022BB4BF2D222B220929427019DD0DF1070216460A2591FBF5F4FA
:4045C00005FB14113031092C02F8011D2146F5DC3031541E02F8011CB4421A460AD214F8012B03F8012BF7E730241A46214402F8024B5970101A02B070BD00002DE9F04FD0
:4046000091B00C46DDF8688016461F46054601F01FFE03680893184600F073FD00230E93D8F800300990073323F0070303F1080294F818A0D4F800B0C8F80020D3E900231B
:40464000C4E91223D4E9128929F000430B93CDF828804FF0FF32A74BDDE90A0102F08AFDA0B94FF0FF32A34BDDE90A01FFF7BEFE60B90022002340464946FFF7ADFE10B1DE
:404680002D2384F843309C4B9C4A0AE042464B464046494602F06EFD002800F09281984B984ABAF1470F8CBF90469846032323612BF0040323604FF000093DE0BAF1670FB4
:4046C00000F08A81BAF1470F00F08681236000210DF133020193636805900292009342464B460691CDF810A0CDF80CE02846FFF7F3FE0AF0DF03472B804600F08481BAF1F6
:40470000650F0D9900F28D810139524604F150000D91FFF742FF0E9A8318012A8146236100F37C812268D10700F178819DF8333013B12D2384F84330009733460FAA214653
:40474000284600F09FF9013002D14FF0FF3096E123685A0501D4236965E0BAF1650F40F2D58000220023D4E91201FFF72BFE78B30123654A31462846B8470130E5D00E9B7F
:404780000D9A9A420BDB2368D80708D423689B0740F111814FF0000804F1190906E1099B089A31462846B8470130CED04FF0000804F11A090E9B013B9845E7DA01234A4686
:4047C00031462846B8470130BFD008F10108F1E70D9B002B29DC01234B4A31462846B8470130B2D00D9B23B90E9B13B92368D907CCD5099B089A31462846B8470130A4D03F
:404800004FF0000904F11A0A0D9B5B42994509DA0123524631462846B847013095D009F10109F1E70E9B4246A7E00E9AA36D9A42A8BF1A46002A914606DC4FF0000A29EAAD
:40484000E97904F11A0B11E01346314642462846B8470130F1D178E701235A4631462846B84701303FF471AF0AF1010AA36DC9EB03029245F0DB08EB03090D9A0E9B9A42EC
:404880000FDB2368DA070CD40E9B0D9A9844C9EB08089B1A9845A8BF9846B8F1000F08DC0FE0099B089A31462846B8470130EBD14BE743464A4631462846B84701303FF4C6
:4048C00044AF4FF0000928EAE87804F11A0A09E00123524631462846B84701303FF435AF09F101090D9A0E9B9B1AC8EB03039945EEDB4BE7FFFFEF7F288008102C80081096
:404900003080081034800810388008100E9A012A01DCDB0738D50123424631462846B84701303FF412AF099B089A31462846B84701303FF40AAF00220023D4E91201FFF76D
:4049400041FD20B14FF0000804F11A0A0EE00E9B08F10102013B19E00123524631462846B84701303FF4F1AE08F101080E9B013B9845F1DB4B4604F1500231462846B84711
:4049800001307FF403AFE0E60123424631462846B8470130EED1D8E601234A4631462846B84701303FF4D1AE08F10108E3680F9A9B1A9845F0DBE0680F9B9842B8BF18462E
:4049C0005DE06268531C0EA84BF480630DF1340E7FF474AE062201E012B90122626075E6002106910DF133018DE80C00236005904246CDF810A0CDF80CE002914B462846BD
:404A0000FFF76AFD80460D9BD81C02DB626893421DDDAAF1020A5FFA8AFA70E60133236184E6BAF1660F14D10029636807DD216113B92268D2071DD501330B4419E013B97D
:404A40002268D00701D5023313E0012311E04FF0670A0D9B0E9A934205DB22682361D10708D5013305E0002BD4BFC3F102030123134423610D9BA3654FF0000956E611B0C6
:404A8000BDE8F08F2DE9F04791461F460A698B68DDF820809342B8BF1346C9F8003091F8432006460C4612B10133C9F800302368990642BFD9F800300233C9F80030256887
:404AC00015F0060510D104F1190A07E00123524639463046C04701301AD00135E368D9F800209B1A9D42F1DB94F843302268003318BF012392060FD5E1185A1C302081F8B6
:404B00004300224494F8451082F84310023303E04FF0FF30BDE8F08704F1430239463046C0470130F4D02268D9F80050E36802F00602042A08BF5D1B2269A3680CBF25EA84
:404B4000E57500259342C4BF9B1AED184FF000091A344D4509D00123224639463046C0470130D5D009F10109F3E70020BDE8F0872DE9F04317460A7E85B06E2A9846064606
:404B80000C460C9B01F1430E00F0AE8011D8632A22D009D8002A00F0BB80582A40F0CA8081F84520834955E0642A1ED0692A1CD0C0E0732A00F0B08009D86F2A2ED0702AB8
:404BC00040F0B8800A6842F020020A603EE0752A24D0782A3AD0ADE01A6801F14205111D1960136884F84230A8E021681A6811F0800F02D0111D196008E011F0400F02F1A1
:404C00000401196002D0B2F9003000E01368002B3CDA2D225B4284F8432037E021681A6811F0800F02D0111D196007E011F0400F02F10401196001D0138800E01368227EA8
:404C40005C496F2A14BF0A2208221BE078225A4984F845202268186812F0800F00F104051D6003D1550601D5038800E00368D00744BF42F0200222601BB9226822F0200285
:404C800022601022002084F8430001E049490A226568A560002D08DB206820F0040020602BB9002D7DD175460CE0002B79D07546B3FBF2F002FB1033CB5C05F8013D034614
:404CC0000028F5D1082A0BD12368DA0708D5236962689A42DEBF302305F8013C05F1FF35C5EB0E0323612EE008681A68496910F0800F03D0101D1860136808E010F0400F39
:404D000002F104001860136801D0198000E0196000232361754616E01A68111D1960156862680021284601F013FB08B1401B6060636804E004F1420584F84220012323612B
:404D4000002384F84330CDF800803B4603AA21463046FFF797FE013002D14FF0FF3026E023692A4639463046C0470130F5D023689B0710D5002504F1190907E001234A46F7
:404D800039463046C0470130E7D00135E368039A9B1A9D42F2DBE068039B9842B8BF184605E00B7884F8423004F142058AE705B0BDE8F0833A8008104B8008100FB40A4B5E
:404DC00013B51C6824B1A36913B9204601F0B6F905AB049AA1680193204602F01DF802B0BDE8104004B070470C43020870B50E46054618B183690BB901F0A0F9AB69AC6802
:404E000013B9284601F09AF9224B9C4201D16C6808E0214B9C4201D1AC6803E01F4B9C4208BFEC68A3891B0701D523693BB92146284600F0E7F910B14FF0FF3070BD013E81
:404E4000A36816F8011F013BA36091B1002B04DAA269934206DB0A2904D023685A1C22601970EDE72246284600F066F90130E7D1E2E7002B08DA22460A21284600F05CF99D
:404E80000130D9D00A2070BD23680A205A1C2260187070BD6C8008108C800810AC800810024B01461868FFF7A1BF00BF0C4302082DE9F7431D464F4B1E6804460F46904629
:404EC00026B1B36913B9304601F038F94A4B9C4201D1746808E0494B9C4201D1B46803E0474B9C4208BFF468B8F1020F04D0B8F1010F79D8002D77DB2146304601F0B4F8EB
:404F0000616B41B104F14403994202D0304601F05FFD002363630023A3616360A3891B0603D52169304601F053FDA38923F44A6323F00303B8F1020FA3811ED001AB6A469D
:404F40002146304601F09AF9A3891843A0810DB9009D00E02FBB284601F0F0F90746D0B9DDF80090A94502D14FF0FF3006E0484601F0E4F9074678B9F6E70020A38943F02D
:404F80000203A3810023A36004F1470323602361012363612AE0A946A38943F08003A3814D46B36913B9304601F0C8F8B8F1010F08BFA389276004BF43F00103A381A38956
:404FC000276103F0080080B2656158B113F001034FF000001DBF6D42A060A561A56008BF184603E0A06001E04FF0FF3003B0BDE8F08300BF0C4302086C8008108C800810EF
:40500000AC8008100CB430B5164B0C1E9DB01D6804DA8B232B604FF0FF301EE04FF40273ADF8143014BF04F1FF332346049307934FF6FF7302900690ADF81630209A21AB22
:4050400002A92846019301F0C9FD431CBCBF8B232B6014B1029B00221A701DB0BDE8304002B070470C43020810B50C46B1F90E1001F0EEFF0028ABBF636DA3891B1823F472
:405080008053ACBF6365A38110BD2DE9F0411F468B89DB0505460C46164605D502230022B1F90E1001F0D8F8A389B4F90E1023F48053A38132463B462846BDE8F04100F084
:4050C0008FB810B50C46B1F90E1001F0C5F8431CA38915BF606523F4805343F48053A38118BFA38110BDB1F90E1000F0F9B810F8012B11F8013B012A28BF9A42F7D0D01A57
:405100007047034613F8012B002AFBD1181A0138704710B5034642B111F8014B03F8014B013A002CF7D11A4400E010BD934202D003F8014BFAE710BDF8B50F461446064605
:4051400018B183690BB900F0F9FF224B9C4201D1746808E0204B9C4201D1B46803E01F4B9C4208BFF468A369A360A3891A0709D523693BB123682069181A63699842FDB21B
:405180000FDB08E02146304600F03CF80028F1D04FF0FF30F8BD2146304600F065FF0028F6D1A368013BA36023685A1C22601F706269431C934204D0A389DB0707D50A2DA0
:4051C00005D12146304600F04FFF0028E0D12846F8BD00BF6C8008108C800810AC80081038B5074C054608461146002222601A46FEF7BEFB431C02D1236803B12B6038BDC4
:40520000F44D0208324B70B51D6806460C4625B1AB6913B9284600F091FF2E4B9C4201D16C6808E02C4B9C4201D1AC6803E02B4B9C4208BFEC68B4F90C309AB215071DD406
:40524000D00602D4092232603AE0510712D5616B41B104F14403994202D0304601F0B8FB00236363A38923F02403A3810023636023692360A38943F00803A38123694BB925
:40528000A38903F42073B3F5007F03D02146304601F018F8A28912F0010305D00023A36063695B42A36103E0920758BF6369A36023695BB9B4F90C3003F0800080B230B156
:4052C00043F04003A3814FF0FF3070BD002070BD0C4302086C8008108C800810AC80081038B5064C002305460846236001F080FF431C02D1236803B12B6038BDF44D02083D
:405300002DE9F74F03690C699C42804600F38380013C01F114074FEA840E00F1140657F8245006EB0E030193013556F82430B3FBF5F507EB0E09002D39D04FF0000A3846A7
:40534000B446D34650F8042B93B205FB03A34FEA134A9BB2C3EB0B03120CBCF800B005FB02A213FA8BF34FEA124A1FFA82FBDCF80020CBEB124202EB23429BB243EA02432E
:4053800081454FEA224B4CF8043BDBD256F80E306BB9019B043B9E421A4602D3C8F8104005E01268043B002AF8D1013CF3E7404601F037FA00282CDB013530464FF0000E29
:4053C00057F8041BD0F800C08AB2C2EB0E03090C13FA8CF3C1EB1C4202EB23429BB243EA0243B9454FEA224E40F8043BE8D256F8242006EB840362B9043B9E421A4602D3B0
:40540000C8F8104005E01268043B002AF8D1013CF3E7284600E0002003B0BDE8F08F00002DE9F04F456A97B08246239CCDE9022345B9102000F082FFCAF8240045608560B3
:405440000560C560DAF82430196859B15A684A60012393408B60504601F00AF8DAF8243000221A60039BA04A002BBFBF01232360039B23F00043B8BF0393DDF80C80A4BFBB
:405480000023236028F000431B0D1B0593421DD1229A42F20F731360029B43B9934A944BC8F31300002814BF1846104600E09048249B002B00F04A85C37813B100F10803CD
:4054C00000E0C31C249A136000F040BDDDE902450022002320462946FEF774FF074658B1229A01231360249B002B00F0228581481860013800F02ABD14AB019315AB00931F
:4055000022462B46504601F007FAC8F30A56059056B1C5F3130343F07F51204641F44011A6F2FF3611971DE0159B149E1E4406F23243202B0ADD029A06F21240C3F14003E4
:4055400022FA00F008FA03F3184304E0C3F12000029B03FA00F0FEF757FC0123A1F1F871013E11930022644BFEF710FB58A3D3E90023FEF7BFFC58A3D3E90023FEF708FB13
:40558000044630460D46FEF74FFC55A3D3E90023FEF7B0FC02460B4620462946FEF7F8FA04460D4601F0FCFD00228346002320462946FEF711FF58B15846FEF735FC024647
:4055C0000B4620462946FEF7FDFE08B90BF1FF3BBBF1160F0DD8494901EBCB01DDE90223D1E90001FEF716FF30B10BF1FF3B002300E00123109300E01090149B9E1B731E94
:40560000089343BFC3F10009002308934FF00009BBF1000F07DB089BCDF834B05B4408930023099306E0CBF1000309930023CBEB09090D93209B092B27D8052BC4BF043B7C
:405640002093209BA3F10203CCBF00250125032B20D8DFE803F0060E0204012302E0012308E000230C93219B002B1CDD069398461EE000230C93219B5B4403F10108069377
:405680004346012BB8BF012312E00125002320930C9501E001230C934FF0FF33069398460022122303E00123069398461A462192DAF8244000226260042101F114029A4274
:4056C0001ED86268013262604900F6E7AFF3008061436F63A787D23FB3C8608B288AC63FFB799F501344D33F0000F07F5C80081065800810398008100000F83F0881081006
:405700006168504600F07FFEDAF8243020601B680793B8F10E0F00F25D81002D00F05A819DED027BBBF1000F8DED0E7B31DDA04A0BF00F0302EBC30393ED007B4FEA2B145C
:40574000E2068DED0A7B0CD59A4BDDE90E01D3E90823FEF7F9FC04F00F04CDE90201032600E00226934D6CB1E30708D5DDE90A01D5E90023FEF7BEFBCDE90A010136641055
:405780000835F0E7DDE90A23DDE90201FEF7DCFC20E0CBF1000404B3854B864D04F00F0203EBC203D3E90023DDE90E01FEF7A2FBCDE9020124110023022654B1E70705D52E
:4057C000D5E90023FEF796FB0136012364100835F3E71BB1CDE9020100E00226109BEBB1DDE902450022744B20462946FEF7F4FDA0B1B8F1000F11D0069B002B40F3E68090
:405800000BF1FF330A9300226C4B20462946FEF771FB0136CDE90201069F02E0CDF828B047463046FEF700FBDDE90223FEF762FB0022634BFEF7ACF90446A1F15075CFB9B7
:405840000022604BDDE90201FEF7A0F922462B46CDE90201FEF7DEFD002840F04182224605F10043DDE90201FEF7B6FD002840F02E82ABE00C9A4E4B791E002A4AD003EBDA
:40588000C103D3E9002300204F49FEF75DFC22462B46FEF77BF9079C05460E46DDE9020101F07EFC1290FEF7BFFA02460B46DDE90201FEF76BF9129B303304F8013B2A46C4
:4058C0003346CDE90201FEF787FD002840F02183DDE9022300203849FEF758F92A463346FEF77AFD002840F0D280079BE31ABB426CDA0022314B28463146FEF7FBFA0022BF
:4059000005460E462D4BDDE90201FEF7F3FACDE90201C3E703EBC10122462B46D1E90001FEF7E8FA079BCDE91201DC191D46DDE9020101F035FC0646FEF776FA303602461A
:405940000B46DDE90201FEF721F905F8016BAC42CDE902014FF0000223D11B4BDDE91201FEF716F902460B46DDE90201FEF752FD002840F08C80DDE9122300201249FEF701
:4059800005F902460B46DDE90201FEF725FDE8B114F8013C302B04F1FF3240F0BA821446F6E7064BFEF7A6FACDE90201BFE700BF08810810E08008100000F03F00002440BA
:4059C00000001C40000014400000E03FDDE90E34CDE90234159B002B7CDBBBF10E0F79DC8F4B03EBCB03D3E90067219B002B14DAB8F1000F11DC40F06C810022894B3046D8
:405A00003946FEF777FADDE90223FEF7F9FC45464646002840F05F8166E1079C32463B46DDE90201FEF790FB01F0BAFB0546FEF7FBF932463B46FEF75DFA0B460246DDE9B3
:405A40000201FEF7A3F805F1300E04F801EB079BC3EB040EF045CDE902012ED102460B46FEF796F88046894602460B4630463946FEF7B2FC78B942464B4630463946FEF712
:405A8000A1FC002800F04782E90704D443E2DDF828B000E01C4614F8012C392A04F1FF3307D1079A9A42F5D1079930220BF1010B0A701A7801321A702DE200225A4BFEF720
:405AC00019FA00220023CDE90201FEF77BFC0028A4D020E20C9A002A2DD0209A012A0ADC119A12B103F2334302E0149BC3F13603099D4C4615E0099B08F1FF35AB42BFBF33
:405B0000099B0995EA1A0D9BB7BF9B185D1B0D930025B8F1000FB9BFC8EB090400234C464346089A01211A4450469944089200F03EFD064602E0099D0C9E4C465CB1089BC9
:405B4000002B08DDA342089AA8BF2346C3EB0909E41AD31A0893099B002B1DDD0C9BABB185B131462A46504600F0BCFD059A01460646504600F024FD05990746504600F006
:405B800077FC0597099B5A1B06D000E0099A0599504600F0A7FD05900121504600F007FD0D9B05465BB31A460146504600F09AFD209B012B054618DC029B83B9039BC3F343
:405BC000130373B9039B23F000473F0D3F054FB1089B013309F101090893012702E0002700E0029F0D9B73B100E000272B6905EB8303186900F08EFCC0F1200004E0209B6B
:405C0000012BD9DD0D9F0120089B184410F01F000ED0C0F12003042B08DDC0F11C0008E008810810000014400000244006D018461C30089B0344814404440893B9F1000FF8
:405C400005DD4A460599504600F09AFD0590089B002B05DD29461A46504600F091FD0546109BEBB12946059800F0DBFD002817DA00230A220599504600F011FC0C9B059094
:405C80000BF1FF3B002B00F05881002331460A22504600F004FC069B002B064637DC33E0B8F1000F2ADC209B022B27DDCDF81880069B83B929460522504600F0F0FB0146FE
:405CC0000546059800F0ADFD00280DDC03E03D4600E000252E46219B079C6FEA030B0AE0DDF828B03D463E46079B079A5C1C312313700BF1010BB0460026F7E00C9BCDF8D5
:405D0000188023B9079CB1E0209B022BD0DC002C05DD31462246504600F032FD06469FB17168504600F06FFB326902320446920006F10C010C3000F05BFB012221465046CF
:405D400000F01EFD804600E0B046029BDDF81C9003F00103089329460598FFF7D1FA3146044600F13007059800F05BFD424602902946504600F071FDC36802463BB9014606
:405D80000990059800F04DFD099A034600E0012311465046099300F06BFB099B4BB9209A3AB9089A2AB9392F28D0029B002B1ADC1BE0029A002A04DB1AD1209AC2B9089A4A
:405DC000B2B9002B11DD01220599504600F0D8FC2946059000F025FD002802DC05D1FA0703D5392F0AD004F1310709F101040CE0002B09F101040BDD392F05D1392389F8B2
:405E0000003009F1010954E0013789F800706DE0079B069A04F8017CE31A9342A1463AD000230A220599504600F039FB464505904FF000034FF00A023146504604D100F0E0
:405E40002EFB0646804686E700F029FB4146064600230A22504600F022FB80467BE700230A220599504600F01AFB059029460598FFF746FA00F1300704F8017B079B069A38
:405E8000E31A9342EBDB079B012AACBF9B180133B0469946002601220599504600F070FC2946059000F0BDFC002802DC15D1FB0713D54C4614F8013C392B04F1FF3209D1BB
:405EC000079B934204D10BF1010B3123079A02E01446EFE70133137008E04C4614F8013C302B04F1FF3201D11446F7E72946504600F0BEFAB8F1000F0DD02EB1464503D0C3
:405F00003146504600F0B4FA4146504600F0B0FA01E0DDF828B00599504600F0A9FA0023229A23700BF101031360249B1BB11C6001E008480AE0079808E0069B002B3FF71A
:405F4000E1AE209B022B7FF7DDAEB1E617B0BDE8F08F00BF388008108A892DE9F041054610070C4659D44B68002B02DC0B6C002B17DDE66AAEB102F48052002392B22F6896
:405F80002B600AB1606D15E0216A01232846B047411C0FD12B686BB11D2B01D0162B03D12F600020BDE8F081A38943F04003A381BDE8F081A3895A0705D56368C01A636B30
:405FC0000BB1236CC01A00230246E66A216A2846B047431CA38906D129681D293AD8214ACA40D60736D500226260D9042269226004D5421C01D12B6803B96065616B2F60E3
:406000000029CED004F14403994202D0284600F0DFFC00206063BDE8F0810F69002FC0D093070E6808BF4B690F6018BF0023C7EB06088B6002E00744C0EB0808B8F1000F08
:40604000AFDD43463A46216AA66A2846B0470028F1DCA38943F04003A3814FF0FF30BDE8F08100BF0100402038B50B6905460C46DBB118B183690BB900F060F80C4B9C42AC
:4060800001D16C6808E00B4B9C4201D1AC6803E0094B9C4208BFEC68B4F90C302BB121462846BDE83840FFF757BF002038BD00BF6C8008108C800810AC800810014900F0CB
:4060C000A9B800BF69600810002310B5044603604360836081814366C281036143618361194608225C30FEF7EFF9054B6362054BA362054BE362054B2462236310BD00BFD1
:40610000695008108B500810C3500810E750081070B568234D1E5D430E4605F1740100F0A5FC044640B1002180E842000C30A06005F16802FEF7C8F9204670BD836910B57A
:40614000044633BB8364C3640365124B124A1B688262984204BF0123836100F01FF86060204600F01BF8A060204600F017F80022E06004216068FFF7A7FF01220921A068D7
:40618000FFF7A2FF02221221E068FFF79DFF0123A36110BD24800810BD600810F8B51C4B1E68B369074613B93046FFF7C7FF4836B4687368013B04D4B4F90C507DB16834D4
:4061C000F8E733680BB13668F2E704213846FFF79FFF30600028F6D10C233B60F8BD4FF6FF73E3810123A38165662560A560656025616561A5610822294604F15C00FEF70F
:4062000063F96563A563A564E5642046F8BD00BF248008102DE9F8438046894600F14804002694B1A5686768013F0CD4AB89012B07D9B5F90E30013303D029464046C84789
:4062400006436835F0E72468EBE73046BDE8F883004870471043020838B5074C054608461146002222601A4600F0DAFF431C02D1236803B12B6038BDF44D020870B50E465F
:40628000B1F90E10002990B014461D4606DA00232B60B3891A060ED540230EE001AA00F0F9FE0028F3DB029A02F47042A2F500535A425A412A604FF480630020236010B0D2
:4062C00070BD00008B8973B59E0705460C4610D401AB6A46FFF7D2FF00990646284600F0C5FB68B9B4F90C309A0522D443F00203A38104F14703236023610123636118E0C8
:406300000D4BAB62A389206043F08003A381009B6361019B20614BB1B4F90E10284600F0CBFE18B1A38943F00103A381A0893043A08102B070BD00BFBD600810024B014694
:40634000186800F093BB00BF0C4302080000000001F0FF01102A2BDB10F0070F08D010F8013B013A8B422DD010F0070F42B3F6D1F0B441EA012141EA014122F007047FF023
:4063800000070023F0E80256083C85EA010586EA010685FA47F5A3FA87F586FA47F6A5FA87F68EB9EED1F0BC01F0FF0102F0070232B110F8013B013A83EA010313B1F8D1A8
:4063C0000020704701387047002D06BF35460338073815F0010F07D1013015F4807F02BF013015F4C03F0130F0BC0138704700BF10B5431E0A44914204D011F8014B03F8D8
:40640000014FF8E710BD70B5456A04460E463DB91020FFF793FF6062456085600560C560656AEB6843B1636ADB6853F8260078B1026843F8262017E021220421204600F00A
:40644000B9FA636AE860DB68002BECD1002070BD012101FA06F56A1D9200204600F0AAFA0028F3D04660856000230361C36070BD70B5446A06460D463CB91020FFF75EFF7A
:406480007062446084600460C4603DB1736A6A68DB6853F82210296043F8225070BD2DE9F0410D691F4606460C4601F1140E0023DEF8000081B202FB01710F0C000C02FBA7
:4064C000007089B2013301EB00419D424FEA10474EF8041BECDCD7B1A3689D4212DB616830460131FFF78FFF2269023204F10C01804692000C30FFF77BFF21463046FFF708
:40650000B7FF444604EB850301355F6125612046BDE8F081030C1B0413B90004102300E0002310F07F4F04BF0002083310F0704F04BF0001043310F0404F04BF80000233E9
:40654000002803DB420003D5581C70471846704720207047036813F007020BD0D90722D49A074BBF5B089B08036003604CBF01200220704799B209B91B0C102213F0FF0FA9
:4065800004BF1B0A0832190704BF1B090432990704BF9B080232D90702D45B0805D00132036010467047002070472020704710B50C460121FFF727FF01224461026110BD96
:4065C0002DE9F74F14460A6923699A42B8BF0B468846BCBFA0461C46D8F81070D4F81090D8F80830D8F8041007EB09069E42C8BF0131FFF708FF00F1140505EB860C2B4675
:406600000022634502D243F8042BFAE704F1140208F1140102EB890301EB87070093009B0192934257D9B2F800B0BBF1000F23D08946AE464FF0000859F8044BBEF800A097
:40664000A3B20BFB03A34FEA144ADEF8004043444FEA14480BFB0A8404EB1344F2469BB243EA04434F454FEA14484AF8043B01D9D646E1E7CEF80480019BB3F802A00432AC
:40668000BAF1000F21D02B682C4689464FF00008B9F800E0B4F802B00AFB0EBEF044A3469BB243EA08434BF8043B59F8043BB4F804E01B0C0AFB03E303EB18434F454FEAA8
:4066C000134801D95C46E3E763600435A7E75CF8043D13B9013E002EF9DC066103B0BDE8F08F00002DE9F843154612F0030206460F4607D0013A214C002354F82220FFF714
:40670000CEFE0746AD1036D0746A3CB91020FFF715FE7062446084600460C460D6F82480D8F808404CB940F271213046FFF73FFF0023C8F80800044603604FF00008EB07C1
:406740000AD5394622463046FFF73AFF394681463046FFF78DFE4F466D100CD0206808B10446ECE7224621463046FFF729FF2060C0F80080F4E73846BDE8F883D480081025
:406780002DE9F0470C464FEA621A26694968A368564407469146751CAB4202DA01315B00FAE73846FFF72FFE0023804600F114011A46534503DA41F823200133F9E72AEAAB
:4067C000EA73206901EB830319F01F0904F1140101EB800E14D0C9F1200C0022086800FA09F002439A4643F8042B51F8042B8E4522FA0CF2F2D8CAF8042042B1B51C06E0EF
:40680000043B51F8042B43F8042F8E45F9D8013D3846C8F810502146FFF72AFE4046BDE8F08703690A699B1A10B511D192001430143183180A4453F8044D52F8041D8C4278
:4068400002D007D3012010BD9842F4D3002010BD184610BD4FF0FF3010BD2DE9F8430C460746114620461546FFF7DBFF061E08D131463846FFF7C7FD012303614661BDE832
:40688000F883BCBF23462C4638466168BABF1D4601260026FFF7B7FD2B69C660266905F11409143404EB860709EB830800F114054FF0000C54F8043B59F8042B1CFA83F164
:4068C0001FFA82FE120CCEEB0101C2EB134303EB214389B24FEA234CC84541EA0343A64645F8043BE6D8BE450ED25EF8041B1CFA81F2131403EB114392B242EA03424FEA12
:40690000234C45F8042BEEE755F8043D0BB9013EFAE70661BDE8F8832DE9F34101211C46089E099D9046FFF76EFDC4F31303C4F30A5407460CB143F480130193B8F1000F5B
:4069400019D002A840F8088DFFF704FE009B48B1019AC0F1200102FA01F10B43C2407B61019200E07B61019BBB61002B14BF02210121396107E001A8FFF7ECFD019B7B61D9
:4069800001213961203034B1A4F2334404443460C0F1350009E007EB8103A0F2324030601869FFF7B7FDC0EB41102860384602B0BDE8F08138B502FB01F4214600F056F8AB
:4069C000054618B122460021FDF77EFD284638BD38B50546002946D051F8043C0C1F002BB8BFE41800F093FB1F4A1368114613B96360146032E0A3420ED92268A0188342BE
:406A000004BF18685B68636004BF121822600C6024E0A24203D813465A68002AF9D118681918A1420BD12168014458188242196014D1106852685A60014419600EE002D99D
:406A40000C232B600AE021686018824204BF10685268626004BF091821605C602846BDE8384000F055BB38BDF04B020870B5CD1C25F0030508350C2D38BF0C25002D0646CE
:406A800001DBA94202D90C23336046E000F03FFB234B1C681A462146A1B10B685B1B0ED40B2B03D90B60CC18CD501EE08C420DBF63684B686360136018BF0C4615E00C4612
:406AC0004968E9E7174C23681BB9304600F0D2FA20602946304600F0CDFA431C18D0C41C24F00304A0420DD12560304600F010FB04F10B00231D20F00700C31A0ED05A425F
:406B0000E25070BD211A304600F0B4FA0130EBD10C233360304600F0FBFA002070BD00BFF04B0208EC4B02082DE9F0478E689E4282460C46914698463ED88A8912F4906FEB
:406B40003AD0256809696F1A6569022305EB450595FBF3F57B1C43449D4238BF1D4653050FD52946FFF782FF064698B13A462169FFF73EFCA38923F4906343F08003A38186
:406B800013E02A4600F0C5FA064670B921695046FFF71EFF0C23CAF80030A38943F04003A3814FF0FF30BDE8F087266165613E44ED1B2660A5604646464528BF4646324646
:406BC0004946206800F088FAA3689B1BA36023681E4426600020BDE8F08700002DE9F04F9DB0804603938B891C060D4616460DD50B695BB94021FFF739FF2860286118B9DB
:406C00000C23C8F80030CDE040236B610023099320238DF82930DFF89CB130238DF82A3037463C4614F8013B1BB9B7EB060910D003E0252BF9D02746F3E74B4632462946BC
:406C40004046FFF771FF013000F0A780099B4B4409933B78002B00F0A08000234FF0FF3204930793059206938DF853301A930126052221784E48FFF76BFB671C049B38B196
:406C80004B4A801A06FA00F0184304903C46EFE7D90644BF20228DF853201A0744BF2B228DF8532022782A2A03D0079A00210A200BE0039A111D12680391002A10DA5242D0
:406CC00043F00200079204900BE0274601343B78303B092B03D800FB02320121F5E701B107923B782E2B1ED17B782A2B0AD1039B1A1D1B680392002BB8BF4FF0FF330237A9
:406D0000059310E000230593781C19460A24074601303A78303A092A03D804FB01210123F5E703B10591032239782248FFF710FB40B14023CBEB000003FA00F0049B1843AA
:406D40000490013739781C488DF8281006227E1CFFF7FEFA88B1194B33B9039B073323F007030833039314E003AB00932A46144B04A94046FDF742FC07E003AB00932A4675
:406D80000F4B04A94046FDF7F3FEB0F1FF3F824603D0099B5344099342E7AB895B0601D4099801E04FF0FF301DB0BDE8F08F00BFD0810810D6810810DA810810FD45081038
:406DC000296B08109368013B002B10B4936009DA9469A34202DBCBB20A2B03D15DF8044BFEF7AAB91368581C10601970C8B25DF8044B7047F8B506460F461446D518AC426A
:406E000008D03A4614F8011B3046FFF7DBFF431CF5D100E00020F8BD2DE9F04F9DB00C4617460393064618B183690BB9FFF786F97F4B9C4201D1746808E07E4B9C4201D1DA
:406E4000B46803E07C4B9C4208BFF468A38918070CD5236953B10023099320238DF8293030238DF82A30DFF8D4B144E021463046FEF7C8F90028EED04FF0FF30D5E0039AC4
:406E8000111D12680391002A80F28C80524243F002000792049098F800302E2B00F08480032298F800106548FFF752FA48B14023CBEB000003FA00F0049B1843049008F1B1
:406EC000010898F800105E488DF82810062208F10107FFF73DFA002800F09580594B002B40F08880039B073323F0070308330393099B53440993B846454615F8013B1BB9B9
:406F0000B8EB07090FD003E0252BF9D0A846F3E74B463A4621463046FFF76CFF01307FD0099B4B44099398F80030002B78D000234FF0FF3204930793059206938DF853302E
:406F40001A930127052229783F48FFF701FA05F10108049B38B13C4A801A07FA00F0184304904546EEE7D90644BF20228DF853201A0744BF2B228DF853202A782A2A3FF467
:406F80007EAF079A00210A20A846013598F80030303B092B03D800FB02320121F4E700293FF479AF079276E798F801302A2B0BD1039B1A1D1B680392002BB8BF4FF0FF33C2
:406FC00008F1020805936BE70023059308F1010019460A258046013098F80020303A092A03D805FB01210123F4E7002B3FF458AF059155E703AB00932246144B04A93046BF
:40700000FDF7FCFA07E003AB009322460F4B04A93046FDF7ADFDB0F1FF3F82467FF468AFA3895B063FF528AF09981DB0BDE8F08F6C8008108C800810AC800810D681081085
:40704000DA810810FD450810D0810810F56D081038B5074C054608461146002222601A46FCF798FC431C02D1236803B12B6038BDF44D020838B5064C0023054608462360EB
:4070800000F0D6F8431C02D1236803B12B6038BDF44D020838B5074C0023054608461146236000F0ADF8431C02D1236803B12B6038BD00BFF44D020838B5064C00230546C3
:4070C0000846236000F0A4F8431C02D1236803B12B6038BDF44D0208884210B501EB020301D8421E0BE09842FBD28118D21AD34204D013F8014D01F8014DF8E710BD994217
:4071000004D011F8014B02F8014FF8E710BD70477047F8B5074615460E4621B91146BDE8F840FFF7A3BC1AB9FFF752FC2846F8BD00F015F885420ED929463846FFF796FC5C
:40714000044650B131462A46FFF752F931463846FFF73EFC01E03046F8BD2046F8BD51F8040C0028BEBF091851F8043CC0180438704700004FEA410C7FEA6C5C02D150EA19
:40718000013C0AD14FEA430C7FEA6C5C02D152EA033C02D14FF0000070474FF0010070474FEA410212F5001215D211D56FF47873B3EB625212D94FEAC12343F0004343EA43
:4071C000505311F0004F23FA02F018BF404270474FF00000704750EA013005D111F0004008BF6FF0004070474FF00000704700BF024B58221A604FF0FF307047F44D020882
:40720000024B58221A604FF0FF307047F44D0208024B58221A600020704700BFF44D0208024B58221A604FF0FF307047F44D0208044A05491368002B08BF0B4618441060A4
